:020000040800F2
:1080000000C0002025E80008099900080B99000825
:108010000D9900080F990008119900080000000050
:10802000000000000000000000000000139900089C
:108030001599000800000000179900081999000818
:108040006DE800086DE800086DE800086DE80008BC
:108050006DE800086DE800086DE800086DE80008AC
:108060006DE800086DE800086DE800086DE800089C
:108070006DE800086DE800086DE800086DE800088C
:108080006DE800086DE800086DE800086DE800087C
:10809000219900086DE800086DE800086DE8000807
:1080A0006DE800086DE800086DE800086DE800085C
:1080B0006DE800086DE800086DE800086DE800084C
:1080C0006DE800086DE800086DE800086DE800083C
:1080D0006DE800086DE800086DE800086DE800082C
:1080E0006DE800086DE800086DE800086DE800081C
:1080F0006DE800086DE800086DE800086DE800080C
:108100006DE800086DE800086DE800086DE80008FB
:108110006DE800086DE800086DE800086DE80008EB
:108120006DE800086DE800086DE800086DE80008DB
:10813000000000000000000000000000000000003F
:10814000000000000000000000000000000000002F
:10815000000000000000000000000000000000001F
:10816000000000000000000000000000000000000F
:1081700000000000000000000000000000000000FF
:1081800000000000000000000000000000000000EF
:1081900000000000000000000000000000000000DF
:1081A00000000000000000000000000000000000CF
:1081B00000000000000000000000000000000000BF
:1081C00000000000000000000000000000000000AF
:1081D000000000000000000000000000000000009F
:0481E0005FF8E0F173
:1081E40010B5054C237833B9044B13B10448AFF3ED
:1081F40000800123237010BD14040020000000003F
:10820400F0E8000808B5034B1BB103490348AFF37A
:10821400008008BD0000000018040020F0E80008F9
:108224000A4B4FF480521A604FF4005159604FF4D6
:10823400405199604FF4E041D96001211977597791
:108244005A611A6140F2FF729A617047300400204B
:1082540010B582B00446134A1168038803EB530037
:1082640001446380002020809269934216D2012B3E
:1082740016D902220DF1060001F088FB638813F081
:10828400010F06D0BDF806301B092380002002B080
:1082940010BDBDF80630C3F30B03F6E70120F6E783
:1082A4000120F4E73004002038B50C46084BDD68A3
:1082B40059692388023B8AB203FB015101F066FB32
:1082C4002046FFF7C5FF00B938BD0220FCE700BF18
:1082D4003004002030B583B00C460B884B8000235B
:1082E4000B80012508E0BDF80420C2F30B0218E05E
:1082F40002B905BB01332380238840F6FE72934202
:1083040016D80E4A11681944022201EB530101A840
:1083140001F03CFB238813F0010FE4D0BDF80420E6
:108324001209002AE4D1002DE2D161888B42DFD00A
:10833400002003B030BDA3800025DBE7300400201B
:108344002DE9F0410546B1F802800F8808EB580486
:10835400134B1E6804F470421644C4F30B049A8A47
:10836400314601F013FB18F0010F0FD02B5D03F021
:108374000F0303EB07132B5501343F092F553146E7
:10838400284601F0F7FA0020BDE8F0812F550134AA
:108394002B5723F00F03C7F303271F432F55EEE793
:1083A4003004002038B505460C46114BDA6859698B
:1083B4002388023B03FB012101F0DCFA2046FFF78E
:1083C40047FF88B96288238803B138BD22802146DB
:1083D4002846FFF77FFF48B921462846FFF7B0FF3C
:1083E4000028F2D00120F0E70220EEE70320ECE7BA
:1083F400300400202DE9F04105460E4690461F4604
:10840400002313801D4B9B683B6039681B4BDB6862
:1084140099422FD2194B9A8A284601F0B7FA4FF0A5
:10842400000E7246154B5B699E45EED24FF0000C70
:10843400BCF10A0F16D80EEB0C03EC5CE4B116F891
:108444000C309C420ED1BCF10A0F04D00CF1010C8B
:108454001FFA8CFCECE71A32AB5AA8F80030002063
:10846400BDE8F0813B6820333B600EF1200E1FFA1B
:108474008EFED6E70320F3E70420F1E73004002062
:108484002DE9F84304460E4617469846FFF7B2FF17
:108494000546042802D02846BDE8F883394620461C
:1084A400FFF718FF054608B10325F4E7D8F80030B4
:1084B400C3F30B08A3EB08090C4B9A8A49462046E0
:1084C40001F064FA002304E003EB0802F15CA15418
:1084D40001330A2BF8D908F11A083B8824F808302C
:1084E4004946204601F046FAD5E700BF3004002093
:1084F400F8B504460F4611461D4640F6FF73138037
:10850400FFF71EFF2968134EB28A21F47F6121F020
:108514000F01204601F03AFA2B68C3F30B030B3327
:108524002022E2542B68C3F30B031C33E750296861
:1085340021F47F6121F00F01204601F01BFAB28A79
:108544003168204601F022FA7168204601F012FADF
:108554000020F8BD300400204FF6FF73984248D045
:1085640020F01F039BB24FF6E072934243D0C0F356
:108574000A0240F2FF739A423FD020F4FC639BB29C
:108584004FF61F0293423AD000F4FC63B3F5FC6F3C
:1085940037D020F4844323F01F039BB24BF6E05200
:1085A400934230D040F2F75383432ED020F48F43CC
:1085B40023F068039BB24BF61702934227D000F4D2
:1085C400BC63B3F5BC6F24D047F6EF33834322D0AA
:1085D40040F21F53834320D000F47843B3F5784F1F
:1085E4001DD000F01F001F2801D00D2070470C2063
:1085F4007047002070470120704703207047052012
:1086040070470720704702207047042070470620F7
:10861400704708207047092070470A2070470B20D4
:108624007047000030B589B004F000F9014605A890
:1086340000F070FE50238DF81C3052238DF81D304D
:108644004D238DF81E3001AB02AA05A96E48FFF731
:10865400D1FE20B1042830D0092009B030BDBDF8C6
:108664000830ADF8103042238DF81C3041238DF8CA
:108674001D304B238DF81E3001AB02AA05A96248B8
:10868400FFF7FEFE002840F0B38004A95E48FFF720
:108694000BFE002840F0AE8002A95B48FFF782FE83
:1086A400002840F0A98001AB02AA4FF4007156489B
:1086B400FFF71EFF002840F0A18050238DF81C30E6
:1086C40052238DF81D304D238DF81E3001AB02AAC4
:1086D40005A94D48FFF7D4FE0446002840F09080D9
:1086E400494D80220021284600F050FD474B1B884D
:1086F4001B029BB21033284620F8023B002110E0F5
:10870400434A02EB0112938984462CF8043B92F805
:108714000EE0D37B43F0080303EB0E2343800131C7
:1087240060461929ECD900230CE03A4931F813C00A
:10873400024622F804CB03F10A0C31F81C104180E4
:1087440001331046092BF0D900230EE032490A68A0
:1087540032F813C0024622F804CB03F10A0C09686C
:1087640031F81C10418001331046092BEED92B4AF5
:108774001188034623F8041B5288428000210BE031
:10878400274A32F81120120292B2264830F811001A
:10879400024423F8022B01310329F1D9002207E016
:1087A400101D214901EB0011898923F8021B0132B4
:1087B400022AF5D9002304E0134AD25C2244D4B23D
:1087C4000133B3F5FF7FF7D90F48624280F8FF21E8
:1087D40002A9FFF7E7FDA8B901AB02AA4FF40071A3
:1087E4000948FFF785FE00283FF437AF092034E736
:1087F4000A2032E7082030E709202EE709202CE779
:108804000A202AE7092028E750040020B0000020AD
:10881400B40000201000002004390020E4020020ED
:10882400E8020020F002002054020020F8B50746B8
:10883400264B9C684FF0FF35244BDB68A3423CD9A0
:10884400224B9A8A2146224801F0A0F8002122E016
:108854005A1F022A26D801330A2BF9D94B1D1C486A
:1088640018443EB31A4AD25C303A4378303B02EBA8
:10887400820202EB820203EB83035B0003EB8203BD
:108884009BB2827813449BB2303B1BB2AB4200DDF7
:108894001D46203420310D4B5B698B42CCD900231B
:1088A4000126D9E7CA180A48805CFA5C9042D2D003
:1088B4000026D0E74FF0FF33E8E740F2E6339D426D
:1088C40001DD4FF0FF35681C80B2F8BD3004002094
:1088D4005004002030B587B003F0A8FF014603A878
:1088E40000F018FD50238DF8143052238DF8153004
:1088F4004D238DF8163000238DF817306B4601AAEE
:1089040003A94B48FFF776FD002840F0868001A9B3
:108914004748FFF7C9FC0446002840F08280444BD6
:108924001988CBB2102B7ED1002304E0404AD05CDE
:108934002044C4B20133B3F5007FF7D3002C74D1C3
:10894400090A3C4B198000213B4B0DE018883B4A37
:1089540002EB011290815888000A9073588840F005
:108964000800D073013104331929EFD90022092AF0
:108974000DD8194631F8045B314820F812505D884F
:1089840002F10A0320F8135001320B46EFE70022EC
:10899400092A0FD82B480568194631F804CB25F865
:1089A40012C002F10A0500685B8820F81530013214
:1089B4000B46EDE71A4632F8040B234908805B881E
:1089C4004B800023032B0CD81188090A1F4820F878
:1089D400131032F8021BC9B21D4820F813100133DA
:1089E400F0E7002307E01D1D32F8020B194901EBE3
:1089F400051188810133022BF5D90025032D0DD8EB
:108A040005EB4500144B03EB8000FFF70FFF114B00
:108A140003EB051398810135F0E70824204607B0DD
:108A240030BD0824FAE70524F8E70624F6E700BF7A
:108A340050040020B000002052040020B4000020A4
:108A44001000002004390020E4020020E802002085
:108A5400F002002054020020C4E900082DE9F0418E
:108A640088B0584B03AC93E8070084E8070020461D
:108A7400FFF7DCFE014606A800F0F0FB9DF81A3073
:108A84008DF811309DF81B308DF812309DF81C3094
:108A94008DF813306B4601AA21464B48FFF7F0FCD2
:108AA400002840F08680484C484D0FCD0FC40FCDB0
:108AB4000FC40FCD0FC495E8030044F8040B2180C4
:108AC400002118E0424B33F811208B0003F13605E6
:108AD400141204F0F8043C48445503F13705D4104B
:108AE40004F0FC044455D20003F138040255393330
:108AF4000022C25401310F29E4D9002637467625D5
:108B0400EF2E46D8002402E0002302341D46B4F5BB
:108B1400C87F3CD2A0B2B1B2421C0B4692B203F061
:108B240061FE03F06FFEFFF717FD4FEA001803F034
:108B340069FEFFF711FD40B26B1C9BB240EA0800CE
:108B4400214A5055234A12689342DED301A91E4894
:108B5400FFF728FC78BB0C2E0BD91F4BB3F846113A
:108B6400B3F8440101F0C2FB1C4A00210B2001F0C0
:108B7400C9FB0C2EC8D97D1CADB2C7F3410200213C
:108B84004FF4BA7001F04AFC2F460023BDE70136CA
:108B9400B6E725B101A90C48FFF704FC78B96B4688
:108BA40001AA4FF43C410848FFF7A2FC20B1092078
:108BB40002E00A2000E0092008B0BDE8F0810920A5
:108BC400FAE700BF18E90008500400208CE9000807
:108BD4006CE900086C140020B400002008E90008C7
:108BE40010B588B0014606A800F038FB274B0DF1FC
:108BF4000C0C93E807008CE807009DF81A308DF8F8
:108C040011309DF81B308DF812309DF81C308DF812
:108C140013306B4601AA61461D48FFF731FC70BB57
:108C24004FF4806200211A4800F0B0FA002307E0F4
:108C3400184A32F8130003F29C521749885401333E
:108C4400032BF5D9124C4FF4B4721349204600F0AB
:108C540093FA01A92046FFF7A5FB98B96B4601AA30
:108C64004FF400612046FFF743FC68B90B4A93892F
:108C74005289934204D20133084A938100E00A20C6
:108C840008B010BD0920FBE70920F9E724E9000832
:108C940050040020F0020020F42B00205402002095
:108CA40010B588B0014606A800F0D8FA164B0DF1AD
:108CB4000C0C93E807008CE807009DF81A308DF837
:108CC40011309DF81B308DF812309DF81C308DF852
:108CD40013306B4601AA61460C48FFF78BFB044630
:108CE40010B1204608B010BD01A90848FFF7DCFA0E
:108CF400044630B94FF4B4720449054800F03CFA14
:108D0400EFE70824EDE700BF24E900085004002041
:108D1400903900202DE9F04188B0014606A800F002
:108D24009DFA584B03AC93E8070084E807009DF8CC
:108D34001A308DF811309DF81B308DF812309DF8E3
:108D44001C308DF813306B4601AA21464E48FFF7BC
:108D540097FB002840F08C8000270AE04721002080
:108D640003F0E6FD07464721012003F0E1FD074338
:108D7400FFB2FF4317F04207F0D10022452110460D
:108D840003F07AFD00224521012003F075FDB84669
:108D94001DE0002003F0E8FD0446012003F0E4FD9B
:108DA400230A2B70030A6B7004F00104AC7000F00A
:108DB4000100E87001360435B6F5806FE9D301A9E6
:108DC4003148FFF7EFFA002854D108F10108B8F14F
:108DD400030F02D83E462C4DEEE72B4C4FF4806235
:108DE4000021204600F0D2F93B4620460FE02749F7
:108DF40001EB03118A89044624F8042B8D7BCA7B7A
:108E040042F0080202EB0522428020460133192B6E
:108E140016D8012BEBD0032BE9D00A2BE7D0102B6B
:108E2400E5D0062BF2D1E2E7194B33F817301B02D9
:108E34009BB2184A32F81720134420F8023B01373A
:108E4400032FF1D901A91048FFF7ACFAA0B96B467A
:108E540001AA4FF484410C48FFF74AFB80B90E4A3B
:108E6400938D528D934208D201330B4A938504E0CB
:108E74000A2002E0092000E0092008B0BDE8F081E2
:108E84000920FAE730E9000850040020B40000206B
:108E9400E8020020F0020020540200202DE9F043F3
:108EA4008BB0014608A800F0D9F9AA4B03AC93E8AB
:108EB400070084E807009DF822308DF811309DF8F2
:108EC40023308DF812309DF824308DF813306B4622
:108ED40001AA2146A048FFF7D3FA002840F02A81CE
:108EE4009D4B9E4A1A609E4A1168908951F8301031
:108EF40059601169908B51F830109960994903C9F0
:108F0400D8601974116A908D51F83010C3F811109B
:108F1400116B908F51F83010C3F8151092490868FE
:108F2400C3F819000979597790490868C3F81E00F5
:108F3400097983F822108E4C03CCC3F82300C3F8BC
:108F44002710D2F8A010B2F8AC2001EBC20051F8FF
:108F54003220C3F82B20027983F82F200D2283F8C6
:108F640030200A2283F8312000260AE0472100201D
:108F740003F0DEFC06464721012003F0D9FC06433A
:108F8400F6B2F64316F04206F0D10022452110460F
:108F940003F072FC00224521012003F06DFCB14670
:108FA400B04632255AE001341D46022C1ED804F185
:108FB40028036B4413F80C2CC2B16B1C66494A5548
:108FC400B3F5805FEFD301A96348FFF7EBF90028FD
:108FD40040F0B28008F10105C8F3410200214FF4CA
:108FE400B17001F01BFAA8463346DCE76B1C5A4A01
:108FF4002C215155B3F5805F0DD201371D46032F47
:109004001CD807F128036B4413F8101C07A800F0C0
:1090140061F93446C9E701A91046FFF7C3F90028EE
:1090240040F08E8008F10104C8F3410200214FF49E
:10903400B17001F0F3F9A0463346DEE76B1C464AF3
:109044000D215155B3F5805F22D25D1C424A0A219D
:10905400D154B5F5805F2DD209F10109B9F5805FCE
:109064003AD2002003F080FC0446012003F07CFC8B
:10907400230A8DF81830030A8DF8193004F001041E
:109084008DF81A4000F001008DF81B003746B6E752
:1090940001A91046FFF786F9002853D108F101040D
:1090A400C8F3410200214FF4B17001F0B7F9A046B2
:1090B4003346CAE701A91046FFF774F9002843D1E3
:1090C40008F10104C8F3410200214FF4B17001F02A
:1090D400A5F9A0463546BFE7DDB16B1C1E4C0D2239
:1090E4006255A81C0A22E254C0F580520021204493
:1090F40005F0E0FB01A92046FFF754F930BB08F165
:109104000104C8F3410200214FF4B17001F086F963
:10911400A0466B4601AA4FEA08310F48FFF7E8F969
:10912400B0B9144A938F528F934206D20133114A35
:10913400938702E00A2000E009200BB0BDE8F08329
:109144000920FAE70920F8E70920F6E70920F4E7FF
:109154000920F2E760E900085004002043485F4119
:10916400B40000203CE9000844E900084CE9000888
:1091740054E900085402002004E051F8042B40F89C
:10918400042B1A46531E002AF7D1704702E040F818
:10919400041B1A46531E002AF9D1704702460B4697
:1091A40019B90120704702FB00F0013B13F0FF03E3
:1091B400F9D1704742F20F73994232D800B5244B6B
:1091C400A3FB01239B0903F1300202704FF47A7C64
:1091D4000CFB131189B21F4BA3FB01C35B0903F101
:1091E400300C5FFA8CFC80F801C04FF0640E0EFB6B
:1091F400131189B2184BA3FB01E3DB0803F1300E12
:109204005FFA8EFE80F802E003EB8303A1EB4301D7
:1092140089B23031C17000230371302A0CD05DF85B
:1092240004FB4F23037076234370652383707223FA
:10923400C37000230371704720230370BCF1300F07
:10924400EDD14370BEF1300FE9D18370E7E700BF81
:10925400D34D62101F85EB51CDCCCCCC194BA3FB65
:1092640001235B0B03F13002027042F2107202FB25
:1092740013139BB2144AA2FB0312920902F13001A8
:1092840041704FF47A7101FB12339BB20F4AA2FB77
:109294000312520902F130018170642101FB12337F
:1092A4009BB20B4AA2FB0312D20802F13001C17037
:1092B40002EB8202A3EB42039BB23033037100231F
:1092C400437170475917B7D1D34D62101F85EB51C5
:1092D400CDCCCCCC0D4BA3FB01235B0903F13002B5
:1092E4000270642202FB1311C9B2094BA3FB0123D0
:1092F400DB0803F13002427003EB8303A1EB43016B
:10930400C9B2303181700023C37070471F85EB519F
:10931400CDCCCCCC1C2204E0303300F8013B043A21
:1093240052B2002A09DB21FA02F303F00F03092BDE
:10933400F2DD373300F8013BF1E700230370704797
:1093440008B90020704710B504468008FFF7F8FFFD
:109354004000013000FB00F3A34202D9013880B27F
:1093640010BD80B2FCE70000F0B500F1020EB1F1CF
:10937400004F18D039B3002935DDC51C2B23837069
:109384000E460B464FF0050C0022092B30D9A74C92
:10939400A4FB0343DB080132032AF6D90CEB8C0C43
:1093A4004FEA4C0CF1E7202383702E22C270037124
:1093B4004371C21D83710023C37104230370A2EBA4
:1093C4000E0343702EE12B2383703022C2702E23B0
:1093D40003714271C31D82710022C2710270A3EB3A
:1093E4000E0343701EE1C51C2D2383704942C7E759
:1093F400022A01D90CEB06010B46002204E08B4C37
:10940400A4FB0343DB080132092BF8D8884BA3FBE8
:1094140002435B080370092A00F20581DFE812F0B9
:10942400F200DA00C000A4008A006F005200380085
:109434001E000A007F4A82FB0132CB17C3EB227362
:1094440003F130042A4602F8024B7B4C04FB13114F
:109454002E236B7015460224002200E00324774B70
:1094640083FB0163CE17C6EB63662B4606F130051A
:1094740003F8015B013C00F0CD80704E86FB015681
:10948400CD17C5EB66656E4E06FB15111D4600E053
:1094940003246C4B83FB0163CE17C6EBA3562B4608
:1094A40006F1300503F8015B013C00F0B380654E22
:1094B40086FB0156CD17C5EBA655634E06FB151169
:1094C4001D4600E00324614B83FB0163CE17C6EB0A
:1094D400A3462B46303603F8016B013C00F09A801A
:1094E4005A4E86FB016CCE17C6EBAC46584F07FBB1
:1094F4001611EAB12E236B700235002200E003241A
:10950400544B83FB0163CE17C6EB63362B4606F13F
:10951400300503F8015B013C7CD04E4E86FB0156BE
:10952400CD17C5EB66354C4E06FB15111D4602E002
:109534001D46E5E70324494B83FB0163CE17C6EBC5
:1095440023362B4606F1300503F8015B013C61D05C
:10955400424E86FB0156CD17C5EB263542F21076F6
:1095640006FB15111D4600E014463D4B83FB0163C9
:10957400CE17C6EBA3162B46303603F8016B013C1D
:1095840048D0374E86FB016CCE17C6EBAC164FF4B1
:109594007A7C0CFB1611DAB12E236B70023500E0D5
:1095A4000324304B83FB0123CA17C2EB63122B46FF
:1095B400303203F8012B013C2CD02A4D85FB0125C8
:1095C400CA17C2EB6512642505FB12111D4602E0A1
:1095D4001D46E6E70324244B83FB0123CA17C2EB91
:1095E400A3022B46303203F8012B012C12D01E4C5F
:1095F40084FB0124CA17C2EBA40202EB8202A1EB92
:1096040042011D462B46303103F8011B02E02022A3
:1096140003F8012BC21D9A42F9D800221A70A3EB59
:109624000E034370F0BD2B46F4E700BFCDCCCCCC89
:10963400ABAAAAAAA12FB84400CA9A3B893BE65513
:1096440000E1F5056BCA5F6B8096980083DE1B43CF
:1096540040420F0089B5F814A0860100AD8BDB6889
:10966400D34D62101F85EB5167666666F0B5841CA6
:10967400B1F1004F15D0551C11B30B464FF0050E38
:109684004FF0000C092B29D98F4EA6FB0363DB088E
:109694000CF1010C6245F5D20EEB8E0E4FEA4E0E24
:1096A400F0E7202383702E22C27003714371C21D20
:1096B40083710023C37104230370131B4370FFE001
:1096C400302383702E22C27003714371C21D8371D3
:1096D4000023C3710370131B4370F1E0944500D35E
:1096E40071440B46002604E0774FA7FB0373DB08A5
:1096F4000136092BF8D8754BA3FB06735B0803707E
:10970400092E00F2DE80DFE806F0CFB9A78D79627A
:1097140046311D054E0A6E4BA3FB0636F609C31CE3
:1097240030368670013A00F0C4804B0A684EA6FBBE
:109734000363DB09674E06FB1311031D2E26C67057
:10974400002600E02346644FA7FB01C77F0E303795
:1097540003F8017B013A00F0AC805F4FA7FB01C71F
:109764007F0EDFF878C10CFB171100E023465C4F35
:10977400A7FB01C7BF0D303703F8017B013A00F0A6
:109784009880574FA7FB01C7BF0DDFF858C10CFBEA
:1097940017119C4600E0A446534FA7FB0137BF0CAA
:1097A4006346303703F8017B013A00F082804E4F64
:1097B400A7FB01E7BF0CDFF834E10EFB17113EB144
:1097C4000CF102032E268CF80160002600E02346EB
:1097D4004F09DFF81CC1ACFB07C7FF09303703F89A
:1097E400017B013A65D04F09DFF804C1ACFB07C720
:1097F400FF09DFF800C10CFB171100E023463E4FC0
:10980400A7FB01C77F0B303703F8017B013A50D027
:10981400394FA7FB01C77F0B42F2107C0CFB1711D9
:109824009C4600E0A446354FA7FB0137BF096346B9
:10983400303703F8017B013A3BD0304FA7FB01E7F7
:10984400BF094FF47A7E0EFB171136B10CF10203F7
:109854002E268CF8016000E02346294EA6FB0176F3
:109864007609303603F8016B013A22D0244EA6FB68
:1098740001767609642707FB161100E02346124E91
:10988400A6FB0176F608303603F8016B012A10D0E6
:109894000D4AA2FB0162D20802EB8202A1EB420153
:1098A400303103F8011B04E02346F9E7202203F8D2
:1098B400012B62199A42F9D800221A701B1B4370BB
:1098C400F0BD2346F5E700BFCDCCCCCCABAAAAAA09
:1098D400834B040000CA9A3B893BE65500E1F50539
:1098E4006BCA5F6B8096980083DE1B4340420F0077
:1098F400C55A7C0AA08601005917B7D1D34D62100E
:109904001F85EB517047FEE7FEE7FEE7FEE7704771
:109914007047704708B502F0A5FD08BD08B504F00E
:10992400E5FB08BD0C4AD2F844310C490B60D2F86F
:1099340048110B4A11601A1D0A490A440A48026078
:1099440024330B4409490B60093309490B60002394
:10995400D3619361704700BF403700206C1400202E
:1099640068140020403F002070140020741400206C
:109974005414002008B5034BD3F85031024A12683E
:10998400984708BD403700206C14002008B5024BEE
:10999400D3F85431984708BD4037002038B5334BCD
:1099A4001B681A785AB9324A126802FB00F0314C2B
:1099B400206002FB01F1304A116001221A702B4B26
:1099C4001B681B78012B11D02B4B1B686BB92B4BDD
:1099D4001A68002393612A4A1360264A1360294AAD
:1099E40003211170214A1268137038BD234B1B6880
:1099F4009B694BBB1E4C244D22881E4B196828467C
:109A0400FFF7C4FF40229821284604F017F81B4BA7
:109A14001A682368403B9361194B40221A60402125
:109A2400012004F011F93021012004F044F8114A16
:109A3400136840331360104A1368403B1360134AA1
:109A44009368403B9360BFE70D4C23684022982104
:109A54000D48184403F0F2FF084B1A689369403B21
:109A64009361236840332360D9E700BF7414002056
:109A74006C140020641400205C1400207014002076
:109A8400501400209A500020403F0020FC50002039
:109A940010B5304B1B68DB6903F1400C2E4B1B687F
:109AA4001A785AB92D4A126802FB00F02C4C206037
:109AB40002FB01F12B4A116001221A70264B1B682C
:109AC4001B78012B3ED0274B1B681BB1264B1B7800
:109AD400042B0AD11F4B1B680024DC6101212046A2
:109AE40004F018F91C4B1B681C7010BD1F49885CDE
:109AF4001F495854174B1968CB690133CB610132A4
:109B0400144B1868C3696345F0D31A4B1C88144B73
:109B14001A6822441A6013490B681B1B0B600F4917
:109B24000968B3FBF1F401FB14336BB1124A114B16
:109B3400198893685B1A93604FF44051022003F034
:109B4400D6FFC0E70022DBE7C361511A0848FFF7DC
:109B540011FFEBE770140020741400206C14002033
:109B640060140020581400209A5000209C500020BB
:109B7400403F00200C510020FC5000202DE9F04F04
:109B84008BB00024192C04D8E0B202F0A7FB0134F6
:109B9400F8E7A74CD4F8583100251D70D4F85C318F
:109BA4001D700F2002F072FFA24B93F87E10082064
:109BB40003F052F8236D0B209847D4F8AC311D8084
:109BC400D4F8B43128469847092002F023FF09202D
:109BD40002F03EFF4FF47A7003F0D0F8092655E006
:109BE4004FF4FA7074E0944B33F81620144423F8BD
:109BF400164006F10A0233F81210084423F8120042
:109C0400013D092D2ED9ECB22146384602F060FF01
:109C14002146384602F074FF854BD3F808214FF0F3
:109C2400010882F80080D3F8083100241C70322027
:109C340003F0A4F83221204602F0C0FE2C1A32218F
:109C4400404602F0BBFE281A84EAE473A3EBE473F3
:109C5400994680EAE072A2EBE0729046002BC2D1F2
:109C6400002AC0D1B9F1020F02D9734B23F816B000
:109C7400B8F1020F04D906F10A036F4A22F813A0BF
:109C84006E4A00210B2000F087FB013E002E23DBEF
:109C94001421092002F01CFF1421092002F030FFD6
:109CA400F7B2384602F0B6FE384602F0D1FE624AF8
:109CB40032F816B00AAB03EB460323F814BC06F1E2
:109CC4000A0132F811A023F828AC042E88D0C82049
:109CD40003F054F8142594E7BE21092002F0F8FE9D
:109CE400BE21092002F00CFF092002F093FE092096
:109CF40002F0AEFE4FF47A7003F040F8504BB3F824
:109D040000A0ADF814A05F88ADF80070002669E0EB
:109D14004FF4FA7003F032F83221002002F04EFEC4
:109D240005463221012002F049FEA9448044013C49
:109D3400052C1BD9E5B2284602F06CFE284602F039
:109D440087FEBE21284602F0C3FEBE21284602F04B
:109D5400D7FE374BD3F8082101211170D3F808310D
:109D640000221A70092CD3D06420D3E734490A881E
:109D74004FF43E7000FB02F292FBF9F9A1F8009057
:109D84004B8800FB03F393FBF8F8A1F80280BE2193
:109D9400062002F09DFEBE21062002F0B1FE244BF7
:109DA400D3F8082101251570D3F8083100241C705C
:109DB400642002F0E3FF3221204602F0FFFDA0F10F
:109DC400BE043221284602F0F9FDA0F1BE02002CA7
:109DD400B8BF6442A146002AB8BF5242904604B9B3
:109DE40062B10136032E09D8144A00210B2000F079
:109DF400D3FA09244FF00008C14699E7B9F1020FDC
:109E040002D90F4BA3F800A0B8F1020F01D90C4BF3
:109E14005F80002207E0074B03EB0213D97B41F07C
:109E24000801D9730132192AF5D90BB0BDE8F08FB6
:109E340040370020B40000201000002018EA000879
:109E4400E4020020F0B51B4BB3F800C01A4B1B888A
:109E5400ACEB030C1CF10F0322D41B11174AB2F80C
:109E640000E003FB0EF39BB2154D2A8803EB12139B
:109E74009BB202F00F046400032101FA04F7114EAF
:109E840056F8231021EA070146F82310A0400143A5
:109E940046F82310013292B22A80944502D0F0BDD4
:109EA4000F33DAE700222A800EF1010E034BA3F8E8
:109EB40000E0F4E77E1400207C14002080140020CD
:109EC40082140020841400202DE9F84307469046AC
:109ED4000B4621B100F003061BB1BF0847E086081A
:109EE400FAE707F0030742E03046FFF7ABFF01341F
:109EF4000B2CF9D9234A138801331380224A13887F
:109F04000C3B13804FF000091DE0002529E0B9F156
:109F1400040F2AD0002403E0F0B2FFF793FF0134CA
:109F24000B2C06D805FA04F313F4006FF4D0F8B23E
:109F3400F3E7144A138801331380134A13880C3B44
:109F4400138009F10109B9F1070F0ED898F8003010
:109F5400212BDAD9A3F1220209EBC2020B4931F811
:109F64001250212BD3D00024DAE708F1010898F825
:109F740000302BB1034A1388013B13800024B7E758
:109F8400BDE8F883801400208214002088EA0008C9
:109F94002DE9F04F83B004463E4BB3F800B03E4B7E
:109FA4001B88ABEB030B1FFA8BFB0BF1FF3A1FFA79
:109FB4008AFA3A4B1B883A4A12889B1A9BB201933D
:109FC4005D1EADB2012706E0A008FFF73BFF013696
:109FD400B542F9D80137BA4505D9324B1F8001265D
:109FE400314B1E80F4E7022612E01FFA86F9DFF8EF
:109FF400B480A8F800902C4F00233B802046FFF744
:10A0040021FFA8F800903D802046FFF71BFF013692
:10A01400B245EAD8234B00221A800226224B1E8026
:10A0240003E02046FFF70EFF0136B542F9D81D4B79
:10A03400A3F800A002261C4B1E8003E02046FFF775
:10A0440001FF0136B542F9D8DFF858800125A8F898
:10A054000050154F3D802046FFF7F4FEABF1020699
:10A06400B6B2A8F800603D802046FFF7EBFEA8F8E2
:10A074000050019B9D1EADB23D802046FFF7E2FEDD
:10A08400A8F800603D802046FFF7DCFE03B0BDE881
:10A09400F08F00BF7A140020781400207E14002072
:10A0A4007C140020801400208214002010B50D4C74
:10A0B40020800D4802800D4A11800D4A1380002330
:10A0C40004E00C4A002142F82310013340F2DB5231
:10A0D4009342F6D90320FFF75BFF074B00221A7067
:10A0E40010BD00BF781400207A1400207C140020D6
:10A0F4007E140020841400200000002070B582B07B
:10A10400B8234FF490722821C820FFF7CFFF002412
:10A114001BE06C4D05EB0415A9896846FFF79EF812
:10A12400694B19880DF10202A14214BF00210121DB
:10A13400A87BFFF7C9FE052C00F08480042C00F0F6
:10A144008A80062C00F090800134062C00F29C805A
:10A154005C4A230102EB0415A8885C490880E8885E
:10A164005B49088058490988D258A14214BF00218C
:10A174000121A87BFFF7A8FEEB7B13F0400FC8D1A9
:10A1840013F0200F2DD113F0010FD4D04D4B03EB5E
:10A1940004139989002940D06846FFF75FF84A4EB6
:10A1A4003188484D05EB04150DF10302A14214BF9B
:10A1B40000210121A87BFFF787FE3188454AA1428F
:10A1C40014BF00210121A87BFFF77EFEAB89C3EBFE
:10A1D40003139A0092B2404B1A80404B01221A702A
:10A1E400A9E7384D05EB0415A9896846FEF7E2FF97
:10A1F400354E31880DF10102A14214BF0021012125
:10A20400A87BFFF761FE3188354AA14214BF0021C3
:10A214000121A87BFFF758FE8DE72B4B1988294BAA
:10A2240003EB04132F4AA14214BF00210121987BA0
:10A23400FFF74AFE284B4EF660221A80274B002275
:10A244001A7078E7284BD3F8B8201E4B03EB04139D
:10A254009B89138072E7244BD3F89020194B03EBAE
:10A2640004139B8913806CE7164B03EB04139B893F
:10A2740033B1C3EB03139A0092B2174B1A8063E70E
:10A28400164B00221A705FE70E4CB4F874300F4E70
:10A294003380B4F876300E4D2B80226F002194F871
:10A2A4007E00FFF711FEB4F884303380B4F88630B2
:10A2B4002B80D4F88020002194F88E00FFF704FE50
:10A2C40002B070BD54020020FE380020801400202B
:10A2D4008214002020EA0008F8020020FA0200207C
:10A2E4001CEA000824EA00084037002008B501F100
:10A2F4000B039BB2024AB2F8CC2002F055FA08BD17
:10A30400403700202DE9F84391460B4651B90146E8
:10A314001F4A32F8118003B908201D4B33F810602E
:10A32400002405E00821F3E7304602F063FA013423
:10A334000B2CF9D924E00025212B02D04FF4006422
:10A3440008E0042F1AD04FF4006403E0304602F012
:10A3540051FA64081CB12542F8D04046F7E70137AA
:10A36400072F0BD899F80030212BE4D9A3F122024E
:10A3740007EBC202074931F81250DDE709F1010980
:10A3840099F800300BB10027EAE7BDE8F88300BF75
:10A3940060F0000888EA00082DE9F84391460B466E
:10A3A40049B901461B4A32F8118003B90820194BF8
:10A3B40033F8107026E00821F4E70025212B02D0A1
:10A3C4004FF4006408E0042E1AD04FF4006403E054
:10A3D400384602F00FFA64081CB12C42F8D040460B
:10A3E400F7E70136072E0BD899F80030212BE4D972
:10A3F400A3F1220206EBC202074931F81250DDE74D
:10A4040009F1010999F800300BB10026EAE7BDE82B
:10A41400F88300BF60F0000888EA0008F8B5174622
:10A4240001F10A0300F10A029BB292B202F0BCF9F4
:10A43400002610E00A210E4B33F8110002F0DAF97D
:10A4440001340A2C06D845FA04F313F0010FF1D0B5
:10A454000821F0E701360A2E09D807EB870307EB3A
:10A4640043033344034A32F813500024E9E7F8BDA8
:10A4740060F0000830EA0008F0B5ADF2044DD723CF
:10A484000A220D21002002F08FF900255BE080AC48
:10A4940060E0002244F823200133652BF9D900221F
:10A4A40027E0314B93F8DE30934236D12F4B1B78A3
:10A4B400F3B132E00133082B1AD84EFA03F111F04C
:10A4C400010FF7D01F1834F81710314324F8171070
:10A4D400F0E7ACF1060307E003EB000E34F81E10BE
:10A4E400314324F81E100133CCF10F019942F3D803
:10A4F4000132032A1CD81E4B33F812001D4B33F8CB
:10A504001260C2EBC2031C4919441C4B9B5C002B18
:10A51400EED11B4B1B880D2BC3D00338062DD8D886
:10A5240011F805E08EF47F4E8EF0FF0E0023C2E793
:10A53400144ED6F8F8309847D6F80031CB2120468F
:10A5440098470135ADB20A2D06D8AC4615F0010F77
:10A554009DD06C460023A0E70A4BD3F8F830984707
:10A564000DF2044DF0BD00BFB4000020824F002066
:10A57400F002002060F0000880F000083C37002062
:10A58400B00000204037002070B5FFF775FF0D21A3
:10A594004FF4BA7002F03EF90D2404E0002002F0FA
:10A5A40029F90134E4B2D72CF8D90B240FE00D219A
:10A5B400204602F02FF9002002F01CF9D721204692
:10A5C40002F028F9002002F015F90134A4B2B4F520
:10A5D400BA7FECD95B4B93F8EE105B4A32F811501A
:10A5E40093F8EC600C36F6B231460A2002F012F908
:10A5F400002404E0284602F0FDF80134E4B2042CFF
:10A60400F8D931464FF4BA7002F004F9002404E09A
:10A61400284602F0EFF80134E4B2042CF8D9494B8F
:10A6240093F8FE10484A32F8115093F8FC600C3647
:10A63400F6B231460A2002F0EDF8002404E0284680
:10A6440002F0D8F80134E4B2042CF8D931464FF4BE
:10A65400BA7002F0DFF8002404E0284602F0CAF8D9
:10A664000134E4B2042CF8D9364A92F87E10364B01
:10A6740033F81160B2F80C31B2F86C209B1AC3EBBA
:10A6840003135D00ABB22DB25A1E92B2B2F5B37F82
:10A6940016D809339CB20FE00D21204602F0BAF817
:10A6A400304602F0A7F8D721204602F0B3F830462E
:10A6B40002F0A0F80134A4B205F10D03A342EBDAD1
:10A6C400204B93F81E11204A32F81150B3F81C6144
:10A6D40006F10904A4B20FE00D21204602F09AF815
:10A6E400284602F087F8D721204602F093F828463E
:10A6F40002F080F80134A4B206F10D03A342EBDAB0
:10A70400104B93F82E11104A32F81150B3F82C6103
:10A7140006F10904A4B20FE00D21204602F07AF8F4
:10A72400284602F067F8D721204602F073F828463D
:10A7340002F060F80134A4B206F10D03A342EBDA8F
:10A7440070BD00BFB400002060F000082DE9F04F98
:10A75400ADF5637D9A4BB3F80C21B3F86C10521A23
:10A76400C2EB02124FEA42091FFA89F9B3F81C71CD
:10A77400B3F82C210092B3F8ECB0B3F8FC200192AA
:10A7840093F87E208F4931F812808F4931F8126096
:10A7940093F80F2102F00102029293F81F2102F0B4
:10A7A4000102039293F82F2102F00102049293F81C
:10A7B400EF2002F00102059293F8FF2002F001025B
:10A7C400069293F87F3003F0010307937F4A1388BE
:10A7D40001331380D62340F273120E210B2001F0B3
:10A7E400E3FF002582E179AC88E147F6EF328DE1A1
:10A7F40047F6EF328AE144F823200133642BFAD977
:10A8040047F6EF33A4F890312380714AA2FB053256
:10A8140022F00F03A3EB12135A00954219D06D4B8B
:10A82400A3FB05239B0803EB43035A0095421AD06C
:10A83400002D00F0D580B5F5B47F00F0D180002361
:10A844003BE047F6EF3224F813200533C72BF8D941
:10A85400E5E70523FAE747F6EF3224F81320193326
:10A86400C72BF8D9E4E71923FAE701F13800C0B29D
:10A8740036283ED8C72208A941F823200CAA52F84A
:10A88400231008AA52F82320914240D04E4A32F8AD
:10A8940013C008AA52F823100CAA52F823000A1A6B
:10A8A400052A05D92CF4844C2CF0080C1FFA8CFCD6
:10A8B400494AD25C002A62D00133032B61D803EBEE
:10A8C4008501464A525CFF2AF6D008A840F82320A6
:10A8D4000CA840F82320501EC0B2C62824D804393E
:10A8E4003E48415C0029C0D10CAA012142F8231042
:10A8F400C4E78A4203D90CAA42F82310BEE78A426D
:10A90400BCD2FF29BAD008AA42F82310B6E701291D
:10A9140003D901390CA840F82310C62AB6D801324D
:10A9240008A941F82320B1E76AB9081FDFF8ACC0D1
:10A934001CF8000038B10DF1300C4CF823000DF177
:10A94400200C4CF82300C72AA0D90439234A525CAE
:10A95400C72A9BD80CA941F8232008A941F8232031
:10A9640094E701329142A7D30028FAD0C729F8D836
:10A9740034F812E04CEA0E0E24F812E0F1E7024635
:10A98400F0E7144BA3FB052323F0010202EB53036E
:10A994009D424ED1059B1BB14FF6FF7324F81B302B
:10A9A400069B23B14FF6FF73019A24F81230079BDC
:10A9B400002B3ED034F81830334324F8183038E0F4
:10A9C400B4000020E802002060F00008864F002058
:10A9D40089888888ABAAAAAA3C370020F42B0020D7
:10A9E4004FF6FF7224F81B206FF000430BEB0301BA
:10A9F40024F811200BF1010124F81120019824F806
:10AA04001020C11824F81120411C24F8112034F816
:10AA14001820324324F81820434434F813203243D6
:10AA240024F8132008F1010234F81230334324F8D7
:10AA34001230012D6CD040F267139D4268D0AF42B2
:10AA440073D0009BAB427DD0AF4202D0009BAB429F
:10AA540007D14FF6FF73A4F89031A4F88E31238008
:10AA640063807B1E2946AB420AD07B1C9D4207D0E3
:10AA7400009A531E9D4203D0134601339D4204D1D4
:10AA84004FF6FF73A4F890312380A94568D009F1EB
:10AA9400FF33994203D009F10103994202D1A4F88A
:10AAA400906126804F4B1A88A5EB020C4E4B1888F8
:10AAB4004E4B1B881B1A67D41B1103FB0CF34C4928
:10AAC40001EB830C4B4B1B782BB9AA4203D84A4B9E
:10AAD4001B88AB425AD8DFF824A1DAF8F83098473B
:10AAE400DAF80031C921204698470135B5F5B47F1D
:10AAF40070D815F0010F3FF476AE10AC002D3FF482
:10AB040077AEB5F5B47F3FF470AE0022002375E64E
:10AB14004FF6FF7324F81B30019A24F8123034F8EE
:10AB24001830334324F8183089E7039B002B88D06E
:10AB3400012304E04FF6FF7224F813200333C82BDB
:10AB4400F8D97EE7049B002B3FF47EAF012304E099
:10AB54004FF6FF7224F813200333C82BF8D973E798
:10AB6400029B7BB9A4F89061A4F88E61268066806C
:10AB74008DE734F81320324324F813200333C82B11
:10AB8400F7D9EFE70123FAE70F3395E7AE4619E06B
:10AB940002321F2A13D8C2F34F0381B20B449BB273
:10ABA400591E89B2C629F3D8DCF80010D14001F04F
:10ABB4000301134D35F8111024F81310E8E70CF1D4
:10ABC400040C1030094B1B88834201D90022E0E7B2
:10ABD400754680E7094BD3F8F83098470DF5637D47
:10ABE400BDE8F08F781400207C1400207E1400202F
:10ABF40084140020000000207A1400204037002034
:10AC040058F0000870B5304CB4F874302F4E3380CF
:10AC1400B4F876302E4D2B80226F0B32002194F83D
:10AC24007E00FFF751F9B4F884303380B4F88630ED
:10AC34002B80284B1B88032B24D80020254B1B88F2
:10AC44001BB3244B1B88012B26D0224B1B88022BC1
:10AC540029D0204B1B88032B2CD090BB0B221A4BE2
:10AC6400D3F880100A44002193F88E00FFF72CF9E2
:10AC7400FFF76CFD4FF47A7002F080F8164B012256
:10AC84001A7070BDFDF7CEFCD8E70F4A02EB031330
:10AC9400187BFDF7A5FFD4E70B4A02EB0313187BDF
:10ACA400FDF7FEFFD1E7084A02EB0313187BFEF71A
:10ACB40031F8CEE7044A02EB0313187BFEF7EEF8F3
:10ACC400CBE71622CBE700BF5402002080140020FB
:10ACD40082140020FE38002000390020F8B5D72166
:10ACE4006D20FFF703FB002714E0002001F082FD34
:10ACF40001340B2C07D82B78234113F0010FF4D027
:10AD040040F21F50F2E701350136072E01D8002426
:10AD1400EFE70137172F02D80026494DF5E7002445
:10AD240004E040F21F5001F065FD0134172CF8D9FE
:10AD3400D7216D20FFF7DAFA002404E040F21F5017
:10AD440001F058FD0134172CF8D93E4BB3F86C4090
:10AD54004FF4B45303FB04F4C4F30F3404F16F064B
:10AD6400B6B2D821304601F055FD002504E04FF677
:10AD7400FF7001F03FFD0135082DF8D97F34A5B2ED
:10AD8400D8232A461946304601F00EFD002404E07B
:10AD94004FF6FF7001F02EFD0134102CF8D9E12399
:10ADA4002A461946304601F0FFFC002404E04FF621
:10ADB400FF7001F01FFD0134102CF8D9D82128466A
:10ADC40001F028FD002404E04FF6FF7001F012FDAD
:10ADD4000134082CF8D91B4BB3F80C614FF4B4536D
:10ADE40003FB06F6C6F30F3606F16E07BFB206F193
:10ADF400710206F16C00E22392B2E12180B201F00B
:10AE0400D3FC104B93F87E200F4B33F812500024E0
:10AE140003E0284601F0EEFC01340B2CF9D906F1CD
:10AE24006F02E02392B2D721384601F0BDFC002422
:10AE340003E0284601F0DEFC0134132CF9D9F8BDF7
:10AE440028EA0008B400002060F000082DE9F0436F
:10AE540091B04FF00064A94804F2011398474FF4ED
:10AE64000041204603F05AFCA54B1B68A54AA2FBEF
:10AE740003239B09013BB3F1807FF5D24FF0E0221D
:10AE84005361A14BF02183F823100025956107231A
:10AE940013619E4B00932B464FF6FF725A2160209C
:10AEA40001F08AFC9A4B00932B464FF6FF725A210D
:10AEB400E82001F081FC914C236D06209847236D16
:10AEC4000420984702F05EFCFEF72CFDFDF7A8F97C
:10AED400636F01261E70236D09209847236D0A2095
:10AEE4009847236D0B209847236D0C2098478021A9
:10AEF400284601F01DFD8021304601F019FD01F0C6
:10AF0400D7FE01F099FCE46806228249204603F04A
:10AF1400D9FC78B106228049204603F0D3FC0028EE
:10AF240048D007227D49204603F0CCFC002843D1B9
:10AF34007B4A00E07B4A7C4B1A6009AC7B4D0FCD09
:10AF44000FC495E8070003C424F8022B120C2270E6
:10AF540002AC774D0FCD0FC495E8070003C424F865
:10AF6400022B120C2270FDF7B5FC38B309AC009427
:10AF740000234FF4FC621E21602001F01DFC5F4A97
:10AF8400D2F8B8106B4BB3F85C000880D2F890206C
:10AF9400B3F84C30138009AB9C4211D04FF4FA60E3
:10AFA40001F0ECFE01F084FE01F046FC624B00224D
:10AFB4001A807FE2614ABEE75A4ABCE702ACD6E790
:10AFC40032216020FFF792F95D4A00210B20FFF740
:10AFD400E3F9FEF7D3FDE5E7FFF790F8594B0022BC
:10AFE4001A7070E2032284E2FDF738FD8146564B65
:10AFF400B3F84611B3F84401FFF778F9B9F1000F3B
:10B0040010D1524A00210B20FFF7C6F94FF4FA6021
:10B0140001F0B4FE4C4A92F84F3143F0080382F831
:10B024004F3186E24A4A00210920FFF7B5F9EDE7DE
:10B03400FDF7F8FA8146444BB3F84611B3F84401DE
:10B04400FFF754F9B9F1000F10D1424A00210B2047
:10B05400FFF7A2F94FF4FA6001F090FE3A4A92F831
:10B064004F3143F0080382F84F3174E23A4A002129
:10B074000920FFF791F9EDE7FFF740F86BE278213B
:10B084006020FFF733F92E4A00210B20FFF784F9E3
:10B09400FEF774FD7821B820FFF728F92F4A002124
:10B0A4000B20FFF779F94FF4FA6001F067FE64E2D0
:10B0B4002B4B1B78002B00F09E802A4B1B88DA1F39
:10B0C40092B2012A50D90D2B77D0152B75D0142BA1
:10B0D40073D0A3F1160292B2012A7DD9132B7BD02F
:10B0E400A3F10E0292B2042A00F24782164A02EB3E
:10B0F4000313DA7B82F00102DA733EE24037002068
:10B1040010040020D34D621000ED00E09CF0000814
:10B1140004000020B0F00008B8F00008C0F00008F7
:10B1240088000020380000200439002024F10008A1
:10B1340040F1000854020020884F002060000020E5
:10B14400C8F0000800390020B4000020D4F0000842
:10B15400E4F00008F4F0000804F1000814F1000819
:10B1640000000020B0000020AD4A02EB0313D97B9D
:10B1740041F00801D973997B0131C9B2997301F087
:10B184000301997382F87E1092F87F1041F0080150
:10B1940082F87F10997B82F88E1092F88F1041F01C
:10B1A400080182F88F109B7B82F80E3192F80F31E0
:10B1B40043F0080382F80F31DFE1994A02EB0313ED
:10B1C4009A7B0132D2B29A7302F003029A73DA7B49
:10B1D40042F00802DA73D0E1914A02EB0312937B46
:10B1E4000133DBB2937303F001039373D37B43F016
:10B1F4000803D373C1E1FFF705FDBEE10121C7E1F7
:10B20400884B03EB4608A2F116039BB2012B09D924
:10B21400012E19D9072A1ED0002716E0824B03EB12
:10B224004608F0E7B8F80030032BF1D17C4B93F8D3
:10B234001F0120F0010083F81F0193F82F0120F073
:10B24400010083F82F01E3E70027032A07D90A2A1C
:10B2540003D0002304E00127F7E7012300E00123E2
:10B264001E466F48B0F88C0110B913B1012300E0F9
:10B2740000234FB943B915F4005F76D0B8F8000045
:10B2840000F004FCA8F80000654BB3F89C30012BD7
:10B2940072D0634BB3F8BC30022B0ED8604BB3F8BA
:10B2A400CC300A2B09D95E4B0A22A3F8CC2093F8A0
:10B2B400CF2042F0080283F8CF20594BB3F89C30DA
:10B2C400032B5ED0012B76D900F0B8F915F4804F2A
:10B2D40014D0564B1A88524B03EB0213D97B41F01E
:10B2E4000401D973524B1B78002B00F08B80162A73
:10B2F40000F28680013292B24C4B1A8014F4004F53
:10B3040040F0A880142001F029FD4A4BB3F86C30BA
:10B314002BB1C3EB03139B009BB2474A1380474BEB
:10B32400DA6F1378DBB2012B00F0B580424B1B8837
:10B334009BB2002B40F0B980414B1B78002B00F0EE
:10B34400B4801378002B40F0B0803C4CD4F88C309F
:10B3540001209847D4F8B83000221A80D4F8082184
:10B3640001231370374A1370A4E0B8F8000000F00A
:10B37400A7FBA8F8000087E7002E8AD001F05CFA4A
:10B3840087E7274AB2F8AC20052A03D9244A0521C5
:10B39400A2F8AC10224A92F8AF1041F0080182F8EA
:10B3A400AF100021A2F86C1092F86F1041F0080160
:10B3B40082F86F1086E71A4BB3F88C31002B83D1D7
:10B3C400214B1B78002B7FF47FAF154B0022A3F891
:10B3D4006C2093F86F2042F0080283F86F2073E723
:10B3E4001A4B01221A7015F4005F04D0184B188808
:10B3F40000F010FB6AE7164B188800F029FB65E79C
:10B40400002279E7124B1B88062B07D001339BB22D
:10B414000F4A13800D4B01221A706FE70023F7E7E0
:10B42400B4000020E8020020F0020020B000002058
:10B434000000002054020020F802002040370020C1
:10B44400FA020020FC380020323F0020003900209E
:10B45400FE3800206D4B1A886D4B03EB0213D97B29
:10B4640041F00401D9736B4B1B783BB122B1013A13
:10B4740092B2664B1A8045E71722FAE7664B1B889F
:10B484003BB1013B9BB2644A1380644B01221A70A6
:10B4940038E70623F7E7624BB3F86C30C3EB0313CA
:10B4A4009B009BB25F490B8040E75F4B1B78012BED
:10B4B40000F08D8000F00CF900F062FE574B1B7811
:10B4C400002B7FF489AD594B1D8825F4786424F052
:10B4D4000F04A4B200221A80002C3FF420AF4B4B7F
:10B4E4001B884B4A02EB0312967B002E7FF47AAD45
:10B4F4000122474901EB021297891B0108330B44CF
:10B5040003F1040815F0100F13D0494B1B8813F0F6
:10B51400080F3FF469AD3E4AB2F88C31B3FA83F3B5
:10B524005B09A2F88C3192F88F3143F0080382F85A
:10B534008F3115F0200F0ED03D4B1B8813F0080FF0
:10B544003FF476AD334A1378B3FA83F35B0913708F
:10B55400002B3FF491AD15F0400F0ED0344B1B88F7
:10B5640013F0080F7FF4A4AD324B5B6A002B7FF419
:10B5740086AD304B1B6F00221A7015F4405F3FF408
:10B58400A5AE2B4B1B8813F0080F7FF437AE0A21AE
:10B59400204B1B78002B3FF423AF1C4B1A881C4B09
:10B5A40003EB0213D87B40F00800D873072A3FF45A
:10B5B40027AE0D2A3FF432AE132A7FF424AE06EBF5
:10B5C400860807EB48071C4B03EB47081BE6194C9E
:10B5D400D4F88C3000209847D4F8B820104BB3F836
:10B5E4005C101180D4F8081100220A70A16F4FF486
:10B5F4007A7008800C490A70B3F86C30C3EB0313FB
:10B604009B009BB2074A138054E700BFB0000020A0
:10B61400B400002000000020FE3800200039002083
:10B6240054020020F8020020FC380020884F00203B
:10B634005C5000204037002010000020214B9B89E3
:10B64400033B9BB2012B20D91E4B1A691E4B9A4215
:10B6540006D01C4B1C4A1A61DA7F42F00802DA77E2
:10B66400184B9B8D033B9BB2012B1BD9154B1A6BBB
:10B67400154B9A4208D0134B134A1A6393F83F2090
:10B6840042F0080283F83F2070470E4B1A690F4BB3
:10B694009A42E5D00B4B0D4A1A61DA7F42F0080258
:10B6A400DA77DDE7074B1A6B084B9A42ECD0054B6F
:10B6B400064A1A6393F83F2042F0080283F83F20B9
:10B6C400704700BFB4000020A8F60008F8F6000890
:10B6D4002DE9F04784B0002455E0B64A1178B64A03
:10B6E400127891425BD0534043F00405B34B93F876
:10B6F4007F1141F0080183F87F1193F85F1141F045
:10B70400080183F85F1193F86F1141F0080183F881
:10B714006F1193F84F1141F0080183F84F11A54BB5
:10B724001A703CE0E0B200F0D9FD072C03D0102CD5
:10B7340001D0062C39D1FFF7D1FA36E0002B50D1D5
:10B744009E4A02EB041292F80E80002B4CD1404624
:10B754002A0902F00803220198498A5803FB0622A9
:10B7640005F00105102841D05FFA80F9EDB22946B1
:10B774004846FEF7C7FDA4F11603012B3BD9012F60
:10B7840040F28E800134192C00F23E818B4B03EB86
:10B794000413DB7B1D468A4A1288A2429DD015F011
:10B7A4000C0FEFD015F0080FBCD1FEF7EDFE834E61
:10B7B40006EB0416F37B23F00C03F373F188B088D3
:10B7C400FEF794FDB689A4F11407032F8CBF002360
:10B7D4000123052EB2D0072EB0D0062EAED0002302
:10B7E400AEE74FF00008B0E70A20B1E70EB103203E
:10B7F400BAE70920B8E708F00103724A122101FBF5
:10B804000322B2F910203AB9042E05D86E4A29460B
:10B814004846FEF7C1FDB5E7002B3FD00321674A38
:10B8240002EB01129189694A52F82110072E01D1C5
:10B834004FF47A7103EBC3023244624830F91220A8
:10B8440002FB01F153B9072E08D05C4A9289033AEE
:10B8540092B2012A02D80A2202FB01F153B1072E47
:10B8640008D0564B9B8D033B9BB2012B02D80A2375
:10B8740003FB01F101A8FDF777FD0DF1060229464E
:10B884004846FEF789FD9DF8042002EB8202504BE6
:10B894001A4429464846FEF77FFD73E70121BEE7B7
:10B8A400C8EBC80808EB06034A4A32F8131029B952
:10B8B400454A29464846FEF76FFD63E73F4BB3F818
:10B8C400AC80454B13F8087001FB07F7062E00F215
:10B8D4009980DFE806F00404043A63048D003F4BCA
:10B8E40013F80860711FC9B20A20FDF757FC07FB63
:10B8F40000F10F311E23B1FBF3F14FF47A7303FB14
:10B9040001F1B8F1090F0AD9B11EC9B20A20FDF735
:10B9140045FC07FB00F10F311E23B1FBF3F10322B9
:10B9240001A8FDF7A3FE9DF8046006EB86032C4EE8
:10B934001E440DF1060229464846FEF72DFD324607
:10B9440029464846FEF728FD1CE7264B13F808A0B5
:10B954000AF10201C9B20A20FDF720FC7E081E2369
:10B9640003FB0061B1FBF7F1B8F1090F0BD95146A4
:10B974000A20FDF713FC1E2101FB0061B1FBF7F760
:10B98400642107FB01F1032201A8FDF76FFE9DF876
:10B99400046006EB8603144E1E44CAE7032201A882
:10B9A400FDF764FE9DF8046006EB86030F4E1E440B
:10B9B400BFE700BFFD380020824F0020B400002004
:10B9C400B00000204439002060F1000864F700084A
:10B9D40048F700080C3900204CF4000864F400080F
:10B9E4002CF600087CF4000890F30008BCF2000870
:10B9F40003224FF47A7303FB01F101A8FDF736FE2D
:10BA0400034E96E7002694E704B0BDE8F08700BF34
:10BA14005CF100080D4B03EB00139A8902EB010C57
:10BA24005B89634505DB094B03EB0010A0F80CC0F0
:10BA34007047064B03EB0013DB7B13F0100F04D0AD
:10BA4400024B03EB001003898381704754020020EA
:10BA54000D4B03EB00139A89A2EB010C1B89634580
:10BA640005DC094B03EB0010A0F80CC07047064B33
:10BA740003EB0013DB7B13F0100F04D0024B03EB3A
:10BA840000104389838170475402002000EB010CAD
:10BA94000A4B03EB02135B8963450BDA074B03EB99
:10BAA4000213DB7B13F0100F06D0044B03EB0212DE
:10BAB40010897047084480B2704700BFB40000206A
:10BAC400A0EB010C0A4B03EB02131B8963450BDD4E
:10BAD400074B03EB0213DB7B13F0100F06D0044B70
:10BAE40003EB021250897047401A80B2704700BFBE
:10BAF400B400002010B5514B00201880FF225A805A
:10BB040058829A824E4A918801F114049C84D98403
:10BB1400D28802F11401D9861A8702468446494B19
:10BB240003E059788C4404330132B2F5B47F22D255
:10BB34004249B1F900E019788E4501DA3F4C218081
:10BB44003E49B1F902E019788E4501DD3B4C618034
:10BB5400197808443949B1F912E059788E4501DA67
:10BB6400364C61823549B1F914E059788E45D8DDF7
:10BB7400324CA182D5E7314AB2F90040C72CCCBF80
:10BB8400002301231382B2F902100029D4BF002339
:10BB940003F00103138243B1A3B2294A14881B1B87
:10BBA400264A13808BB21B1B5380244B1A88598856
:10BBB400521A9A80C2082449A1FB0212204908881B
:10BBC400C0EB92021A81B3F91240C72CCCBF0022F9
:10BBD40001225A84B3F914100029D4BF002202F0C0
:10BBE40001025A8442B1A3B2154A54881B1B134A5A
:10BBF40053828BB21B1B9382104A538A918A5B1A1D
:10BC0400D3824FEADC031049A1FB03130C49498892
:10BC1400C1EB930353830D4C2388181A90816388D6
:10BC24005B1AD3830A49B1F8EC30B1F8FC105B1A03
:10BC34005381084B1B88DB08D38110BD4439002095
:10BC4400F0020020F42B0020176CC116E80200203B
:10BC5400B4000020FC0200202DE9F0410446224BF0
:10BC640000EBC00203EB420133F91260B1F9023078
:10BC74001E4406EBD67676101C4B00EB030E002216
:10BC84009046104617461546944605E0B7FBF8F073
:10BC94000EF1040E01328C46B2F5B47F1AD29EF82E
:10BCA4000030134931F814105B1A9E42ACBF0021D6
:10BCB4000121002AECD01DB103FB037708F1010830
:10BCC4008C45E5D001EB4C0C6545DFD0002DDFD170
:10BCD4006546DDE7FDF734FB04EBC404024B03EBDC
:10BCE4004404E080BDE8F08144390020F42B0020B6
:10BCF400F00200202DE9F04F83B08246424B00EB66
:10BD0400C00203EB420133F91200B1F902301844C6
:10BD140000EBD0703D4B33F81A3003EB60003C4B22
:10BD24000AEB030C0023994601939B4698461F4651
:10BD34001D461E46194610E0012217E0A84426E0DD
:10BD440009F10109CDF80480BB46002501E0354620
:10BD54000E460CF1040C01331146B3F5B47F1AD22C
:10BD64009CF80040421D9442E6D80A46A0F1050E14
:10BD7400744500D20022002BEBD001358A42E8D072
:10BD840002EB4101002EE2D0002AD7D12F448E428B
:10BD9400D6D00025DDE709F1FF331C2B32D864230C
:10BDA40003FB0BF1B1FBF9F51A4ACAEBCA0402EB27
:10BDB400440022F81450019D03FB05F4B4FBF9F48C
:10BDC4004480AB4403FB0BF3B3FBF9F39BB28380D6
:10BDD400C380B1FBFBFBA0F808B00F49B1F82C31CC
:10BDE400B1F81C115B1A002BB8BF5B4203EB830351
:10BDF40003EB83039B005381084B1B88938103B09F
:10BE0400BDE8F08F0023CBE744390020F002002086
:10BE1400F42B00200C390020B4000020844F0020B3
:10BE240008B5FFF767FE164BB3F87C31032B0FD030
:10BE3400134BB3F86C31032B10D0114BB3F85C31B6
:10BE4400052B11D10E4BB3F84C31052B12D108BD83
:10BE54000B4B93F87E01FFF7FFFEE9E7084B93F8DD
:10BE64006E01FFF7F9FEE8E7054B93F85E01FFF773
:10BE740041FFE7E7024B93F84E01FFF73BFFE6E78C
:10BE8400B4000020134BB3F800C084451BD8A0EBCA
:10BE94000C0C00230AE00F4A12881A44521A0E4965
:10BEA40051F822100D4A42F823100133B3F5B47F40
:10BEB40009DACCF5B4719942EDDD03EB0C020749C4
:10BEC40051F82210EEE7B0F5B47F00D30020014B07
:10BED40018807047343F002098310020F42B002054
:10BEE400C72803DC20EAE07080B27047C82070479E
:10BEF400094BB3F89C30032B07D043B9064BB3F876
:10BF0400AC30022B05D90020704701207047002077
:10BF140070470120704700BFB40000202DE9F04FA6
:10BF240093B0044602464521002000F0A5FC2246B9
:10BF34004521012000F0A0FC854B1968854B9A8BA4
:10BF440031F8122008929A8F0A3231F8122009929D
:10BF5400814A11880A9151880B9191880C91D28859
:10BF64000D92B3F8AC107D4A32F811200592B3F863
:10BF74004C200E92B3F85C90A9F10202784B03EBCB
:10BF8400020B09F29A529B5C1193FFF7B1FF28B997
:10BF9400744C00274B46D1469A4625E0724CF8E78C
:10BFA400B8B2CEE006F0010606EB8606B60062E003
:10BFB4000698079B18440C9B184400B2FFF790FFA7
:10BFC400002F40F08780029B2370039B6370A07056
:10BFD400049BE3700434B8460137049B10930F901C
:10BFE400DDF80C90029B0193002000F0BDFC054697
:10BFF400012000F0B9FC064645EA0003C3F38001C2
:10C004005A4A1170C3F38011594A1170C3F3C00125
:10C01400584A1170C3F34001574A1170C3F3001317
:10C02400564A1370002BBBD10A9AC2EB1520089B09
:10C0340003FB00F000F50070830A069302EB9020E6
:10C0440000B2FFF74DFF02900B9AC2EB1620099B3A
:10C0540003FB00F000F50070830A079302EB9020C5
:10C0640000B2FFF73DFF0390BAF1010F9AD99BF894
:10C074000060119BF61A0D9B981900B2FFF730FF70
:10C08400049005F0010505EB8505AD0028460E9BDF
:10C09400023B052B8FD801A252F823F0B5BF00084C
:10C0A400B9C00008C1C00008C7C00008CDC000085E
:10C0B400D3C00008069B079A981A7CE705EA060095
:10C0C40079E745EA060076E7069B584273E7079B43
:10C0D400584270E7029B019AA3EB020C039BA3EB6B
:10C0E40009060F9BC51A0499109A891A06901846D6
:10C0F40096461CE008FB0CF2019B03EB922208FB22
:10C1040006F309EB93232270637008FB05F200EB3E
:10C11400922208FB01F30EEB9323A270221DE3701D
:10C12400059B98440137B7F5B47F09D01446B8F598
:10C13400806F09D8BAF1010FDCD90BF1040BD9E7F0
:10C14400B8B213B0BDE8F08F0698A8F5806844E74C
:10C1540004390020B4000020F0020020B8F10008E7
:10C1640090390020F42B002098310020323F002029
:10C17400313F0020093900208C3900200839002083
:10C1840038B54721002000F0D3FB044647210120A5
:10C1940000F0CEFB2043C0F38001494B1970C0F37B
:10C1A4008015484B1D70C0F34002474B1A70C0F312
:10C1B400C002464B1A70C0F30010454B1870454B33
:10C1C400B3F89C20B3F8AC40B3F86C30424830F874
:10C1D400140003FB00F0C0EB0010C0F35520032A49
:10C1E40052D8DFE802F0022B3C55022C16D8394B0A
:10C1F400B3F88C31012B0AD00024FEF7A7FAFFF71D
:10C204000FFEB4F5B47F3FD100F052FD3CE00020B6
:10C21400FFF784FE0446FFF735FEEEE739B95DB15A
:10C224002C4BB3F88C31012B01D00024E5E780B20C
:10C23400FFF774FE0446E0E70024DEE751B900246A
:10C24400FEF784FAFFF7ECFDB4F5B47F1CD100F0DF
:10C254002FFD19E080B2FFF761FE0446F0E7A1B1BB
:10C2640080B2FFF75BFE194B1B784BB1194B0022D0
:10C27400A3F88C2193F88F2142F0080283F88F21D0
:10C28400FEF764FAFFF7CCFD38BD00F0D5FAEAE713
:10C29400104BB3F88C31012B0AD00024FEF756FA68
:10C2A400FFF7BEFDB4F5B47FEED100F001FDEBE77E
:10C2B4000020FFF733FE0446FFF7E4FDEEE700BF7E
:10C2C400323F0020313F00208C3900200939002002
:10C2D40008390020B4000020B8F1000838B55C4BE0
:10C2E40003EB00139B89182823D8DFE800F0173CE0
:10C2F40030465056226FA622A291915C2222687B7E
:10C304007B5C222222220D00514BB3F88C31012B8D
:10C314000FD100F0CDFC00F08FFA0AE04D4AD2F8BC
:10C32400582103F001011170B3FA83F35B094A4AFF
:10C334001370FFF7DDFD002840F08780444B93F82D
:10C344008C00434B93F87E1000F086FC38BD414AC4
:10C35400D2F85C2103F001011170B3FA83F35B0995
:10C364003D4A5370E5E7DCB2204600F053FB3B4BFB
:10C374001978204600F0ACFBDBE7DCB2204600F085
:10C3840067FB364B9978204600F0BAFBD1E7B3FA45
:10C3940083F35B09304A9370CBE7B3FA83F35B0909
:10C3A4002D4AD370C5E72A4C2C4D2978207F00F004
:10C3B4008FFBA97894F83C0000F0A2FBB9E7C3EB2B
:10C3C4000310400080B200F0B3FBB2E7244C2278A3
:10C3D4002121002000F084FAA2782121012000F01C
:10C3E4007FFAA6E71A4AB2F81C31B2F82C41A342EC
:10C3F4000CD91C1BA4B222462221002000F03CFAD6
:10C4040022462221012000F037FA92E7E41AF1E7EC
:10C414000F4BB3F8BC30032B05D00D4BB3F8CC0055
:10C4240000F0C4FB85E70A4BB3F8CC0000F0A0FB96
:10C434007FE7D8B200F02AFB7BE7054B93F87E1028
:10C4440093F88C0000F008FC73E7082079E700BF3C
:10C45400B4000020403700203C370020F0020020C8
:10C46400E80200209F4B1B88A52B40F2FB809D4BCC
:10C4740000221A809C4A137883F0010313709B4BAB
:10C484001B889BB22BB1994A13889BB2013B9BB288
:10C494001380974B1A88013292B21A8012F0010F5E
:10C4A40040F0788130B59349D1F8A8301878D1F8A4
:10C4B400AC301B785B0343EA00331BB2D1F8B00005
:10C4C400007843EA80331BB2D1F8B410097843EA08
:10C4D400C13318B203F47043874CB4F9001020EA56
:10C4E400010C1FFA8CFE21EA00018DB2238011F4A5
:10C4F400805F07D013F4005F00F0B8804FF48054DD
:10C504007E490C8015F4804F06D00028C0F2B1801B
:10C514004FF48040794908801EF4005F07D013F47B
:10C52400805F00F0A9804FF4805074490880BCF10A
:10C53400000FC0F2A480724B1B889BB2012B40F207
:10C54400A9806F490B889BB2023B9BB20B806D4B59
:10C55400A3FB02131B0903EB83039900511A89B24D
:10C5640000297ED1B2F57A7F02D9614B00221A806C
:10C57400604AD2F898301B78D2F89C10097843EAC4
:10C584004103D2F8A010097843EA8103D2F8A42029
:10C59400127843EAC2035C4A13805C4C218821EA86
:10C5A40003055648028842EA051212B2028023EAC1
:10C5B400010142EA012202802380554B1B88312B62
:10C5C40072D80133524A1380524BB3F86C30B3B172
:10C5D400514B1B889BB293B9504B1B88002B40F0E6
:10C5E400AF804F4B1B8840F2E232934276D805333A
:10C5F4004B4A13803F4B9B6F494A12881A80494A21
:10C604001388591C11800B2B2BD9134600221A8036
:10C61400454A1378B3FA83F35B091370434B1B88C1
:10C62400A3EBD3039BB2334AD2F88420128892B28C
:10C6340040F2771101FB02F203EB22239BB23B4A47
:10C64400138047F2C062934240F28680384B042242
:10C65400A3F89C21364A92F89F3143F0080382F8EC
:10C664009F3130BD01331F4A138008E74FF4005453
:10C6740046E74FF400404DE74FF4005055E713F4FC
:10C68400804F04D04FF400411C4B198053E74FF402
:10C694008041F9E7174BD3F894100B889BB223F031
:10C6A40001039BB20B8052E7194B00221A80214AE6
:10C6B40013889BB201339BB21380174B1B889BB228
:10C6C4002BB1154A13889BB2013B9BB213801A4BC2
:10C6D40019881A4A118000221A8075E70F4B01222B
:10C6E4001A8087E75E50002060500020804F0020B1
:10C6F4003A3F0020403700208E4F0020884F002012
:10C70400363F0020CDCCCCCC5C500020904F002094
:10C71400383F002054020020F80200208A4F0020F5
:10C724008C4F00203C3F0020824F0020FC02002060
:10C73400B4000020924F0020864F0020844F002038
:10C74400154B1B88052B03D9053B134A138051E76E
:10C75400124B00221A804DE7B3F5E14F04D9104B78
:10C764000322A3F89C2175E746F64022934204D99C
:10C774000B4B0222A3F89C216CE7B3F5C84F04D9F4
:10C78400074B0122A3F89C2164E7064B1B6F002290
:10C794001A705FE7704700BF8C4F00208A4F00205B
:10C7A400B40000204037002010B5024CD4F8E0401B
:10C7B400A04710BD4037002070B514461D4601F156
:10C7C4000D039BB240F28F12FFF7EEFF044BD3F838
:10C7D400EC60049B2A4600212046B04770BD00BF90
:10C7E4004037002010B5024CD4F8E440A04710BDF7
:10C7F40040370020024BD3F8C4301880704700BF84
:10C8040040370020024BD3F8C830188880B27047F4
:10C814004037002010B5044AD2F8E040D2F8D030B6
:10C82400D2F8CC20A04710BD40370020014B186A35
:10C83400704700BF4037002008B50B4BB3F88C316C
:10C8440003B908BD4FF4B4724FF0FF310748FCF749
:10C854009DFC4FF4B4724FF0FF310548FCF796FC91
:10C86400044B00221A80ECE7B4000020F42B0020D3
:10C8740098310020343F002010B4184BD3F8043111
:10C8840040BB1648D0F810410020207089B299812D
:10C89400198911F0010FFBD0988980B2198911F020
:10C8A400020FFBD0D1B29981198911F0010FFBD08D
:10C8B400998940B2198911F0020FFBD0120A9A81AA
:10C8C4001A8912F0010FFBD09B8901232370C0B297
:10C8D40010BC70470148D0F81441D5E74037002018
:10C8E40010B4124BD3F80431E0B91048D0F8104119
:10C8F4000020207089B29981198911F0010FFBD0B1
:10C90400988980B2198911F0020FFBD092B29A81F2
:10C914001A8912F0010FFBD09B8901232370C0B246
:10C9240010BC70470148D0F81441E1E740370020BB
:10C9340010B40C4BD3F8042178B9D3F81041002378
:10C94400237089B29181138913F0010FFBD0908970
:10C9540001232370C0B210BC7047024BD3F81441BA
:10C96400EDE700BF4037002010B4134BD3F8043177
:10C97400F0B9114AD2F810410022227046229A815D
:10C984001A8912F0010FFBD09989C9B21A8912F0E1
:10C99400020FFBD000229A811A8912F0010FFBD0FA
:10C9A4009889C0B20123237041EA002010BC70476B
:10C9B400014AD2F81441DFE74037002010B483B0B5
:10C9C400134BD3F80431F8B9114AD2F810410022BC
:10C9D400227089B299811A8912F0010FFBD09A89C9
:10C9E400D2B28DF807201A8912F0020FFBD0002270
:10C9F4009A811A8912F0010FFBD0988901232370C0
:10CA0400C0B203B010BC7047014AD2F81441DEE74B
:10CA1400403700200C4AD2F860110C4B13F800C0C8
:10CA240081F800C0D2F868111844837A0B70D2F8E8
:10CA34007031017D1970D2F87831817F1970D2F884
:10CA4400803100221A7070474037002094F70008A4
:10CA54000C4AD2F864110C4B13F800C081F800C0E2
:10CA6400D2F86C111844837A0B70D2F87431017DBA
:10CA74001970D2F87C31817F1970D2F88431002288
:10CA84001A7070474037002094F7000838B5044600
:10CA94000D4B33F810502A4641210020FFF7ECFEDD
:10CAA4002A4641210120FFF7E7FE084B33F81440E2
:10CAB400224642210020FFF7DFFE224642210120C8
:10CAC400FFF7DAFE38BD00BFE4F100088CF100087E
:10CAD400084B33F81030084A128802FB01F101F5C3
:10CAE4000071064AD2F8882103EBA1239BB213807C
:10CAF400704700BF10000020E402002040370020EF
:10CB04000A30084B33F81030074A528802FB01F10F
:10CB140001F50071054AD2F88C2103EBA1239BB2E5
:10CB24001380704710000020E402002040370020EA
:10CB340010B50D4BB3F8AC200C4B33F8123000FB9E
:10CB4400033000280CDBC0F38F242246432100204D
:10CB5400FFF792FE224643210120FFF78DFE10BD10
:10CB640000F2FF30EFE700BFB4000020B8F1000886
:10CB740038B505460A4C236D0C209847D4F89031FB
:10CB8400084A525D1A80D4F89421074B33F81530C3
:10CB940013800133D4F898215B08138038BD00BF9B
:10CBA40040370020A8F2000880F2000838B5044697
:10CBB400224D2B6D0B209847D5F8B43100209847AF
:10CBC400D5F89C311E4A125D1A80D5F8A0311D4A51
:10CBD40032F814201A800A2C06D06421174BD3F89B
:10CBE400A4311960002219E03221F7E753001648F6
:10CBF400B0F8BC004FF0640C0CFB0033134830F861
:10CC040013304FF4617000FB03F3114880FB0303FE
:10CC14009B11CD330F4820F8123001328A4203D2DF
:10CC24003229E3D01346E2E7044BD3F8A82109499B
:10CC34001160D3F8B4310120984738BD4037002043
:10CC440080F1000868F10008B4000020BCF7000877
:10CC5400D34D6210944F002010B5072818D80C4605
:10CC6400032921D8DFE801F002060B0F00F11003BD
:10CC7400DAB20FE000F11001CCB200220AE0183061
:10CC8400C2B2002406E000F11801CCB2002201E097
:10CC94000124224620210020FFF722FE22462021E3
:10CCA4000120FFF71DFE10BD00242246F2E700001C
:10CCB400234BB3F88C3103B9704710B500224021DF
:10CCC4001046FFF7D9FD002240210120FFF7D4FDD3
:10CCD4001B4CB4F80C01C0EB0010400080B2FFF70D
:10CCE40027FF94F8AC00FFF7D1FE164C22782121DF
:10CCF4000020FFF7F5FDA27821210120FFF7F0FDC8
:10CD0400FFF7F6F8C8B90E4B93F88C000C4B93F868
:10CD14007E10FFF7A1FF00230B4A13700B4A137018
:10CD24000B4A13700B4A13700B4AD2F808110120F6
:10CD34000870D2F80821137010BD0820E6E700BF80
:10CD4400B4000020E8020020323F0020313F0020E0
:10CD5400093900200839002040370020054B18808D
:10CD6400054BD3F8942013889BB243F0010313803E
:10CD7400704700BF363F00204037002082B001904A
:10CD8400019B9BB2044A1380034B1B889BB2002B6C
:10CD9400FAD102B0704700BF804F002008B538B107
:10CDA400064B1B681B689847054B18680A3008BD7A
:10CDB400034B1B6801221A82F9E700BF9050002040
:10CDC4008850002008B538B1064B1B689B6898470B
:10CDD400054B18680C3008BD034B1B6801221A82EE
:10CDE400F9E700BF905000208850002008B5E8B152
:10CDF400294B00221A80294B1A68137813F07F03F9
:10CE04001FD1537A13F0200F02D0234A022111704C
:10CE140013F0400F0FD0204A137843F0010313702E
:10CE24001F4B1B681B6998471B4808BD1B4B1B689D
:10CE340002221A82F9E7184A137823F001031370C7
:10CE4400EEE7012B24D0022B24D1527902F00F03F8
:10CE540012F0800F0ED19B0003F1804303F5B84319
:10CE64001B6803F44053B3F5805FD9D10A4B012208
:10CE74001A70D5E79B0003F1804303F5B8431B68A0
:10CE840003F03003102BCBD1034B01221A70C7E7F8
:10CE94000148CAE70020C8E76450002088500020F9
:10CEA40090500020F8B5254B1D682C8A2B7A0CB9BC
:10CEB400042B28D0AB8A9C423ED804279C4200D342
:10CEC4001C46A4B2AB69204698470646002000F0F1
:10CED4009BFE01462246304600F0B0FD214600206C
:10CEE40000F0B2FE2B8A1B1B2B826B8A1C446C82C3
:10CEF400134B30221A80134B4FF440521A800F4BBD
:10CF04001B681F72F8BD104B1B78012B04D00C4B0F
:10CF140010221A800727F2E70C4BD3F8502C92B258
:10CF24000B4B13445B0000221A60054B302119801F
:10CF3400054B1A700427E2E70227BFE78850002058
:10CF4400985000209650002061500020005000406E
:10CF54000230002010B582B0774B1A685378062B44
:10CF640031D03BB9518829B9516821F47F41B1F5D9
:10CF7400003F3FD0082B7AD00A2B00F088806F4BFB
:10CF84001B686D4A12681B6950789847032800F0A3
:10CF9400A080694B1B681A8A4FF6FF718A4200F021
:10CFA4009D80022800F09D80002A00F09A8093F969
:10CFB40000100029C0F2998003221A72604B4FF4CA
:10CFC40040521A808FE0137813F07F0FD7D19378F3
:10CFD400012B07D0022B09D0032BD0D1574B1B6850
:10CFE4005B6A49E0554B1B68DB6945E0534B1B68A2
:10CFF4001B6A41E0137813F07F0302D19188002962
:10D0040065D0012B1BD0022BB9D1537903F00F0249
:10D0140003F0700013F0800F20D1930003F18043DC
:10D0240003F5B8431B6803F4405346490978914219
:10D03400A5D90028A3D1002BA1D0434B1CE03F4B22
:10D044001B689B69002150799847002897D13A4B77
:10D054001B689B7A002B92D03B4B0DE0930003F1AD
:10D06400804303F5B8431B6803F03003DDE713780E
:10D0740013F07F0F83D1354B002B80D02E4A1268DA
:10D0840000245482936120469847204681E7137810
:10D0940003F07F03012B7FF472AF937A002B3FF4EC
:10D0A4006EAF5388002B7FF46AAF536823F47F4339
:10D0B400B3F5803F7FF463AF204B1B689B6900216D
:10D0C4005079984700287FF45AAF214BD4E71E4B80
:10D0D400D2E7194B1B6809221A7204E009221A725A
:10D0E40001E008221A7202B010BDD988019101989A
:10D0F400824209D9019A1A82104A126892F82C20A5
:10D104009A82FFF7CFFEEEE78A42F5D20B4909680F
:10D1140091F82C1088B2824203D20E4A0021117079
:10D12400EAE792FBF1F001FB1022002AE4D1094A5C
:10D1340001211170E0E700BF885000208C500020CE
:10D144009650002094030020F1CD0008A1CD0008E2
:10D15400C9CD00086150002070B5254B1C68258A94
:10D16400A369B3B1ADB1A18A8D4200D30D46ADB26E
:10D17400284698470646238A5B1B2382638A2B44EE
:10D184006382002000F050FD01462A46304600F03C
:10D1940069FC238A43B9238AA28A934210D3144B8D
:10D1A4001B6803221A7270BD124B4FF440521A804E
:10D1B4000021084600F048FD0F4B30221A80EAE7B0
:10D1C40023B10B4B1B6805221A72ECE7084B1B6852
:10D1D40006221A72094BD3F8502C92B2084B13440E
:10D1E4005B0000221A60044B30221A80DBE700BF88
:10D1F4008850002096500020985000200050004095
:10D204000230002010B50C4B1B68DA780B494978C2
:10D214008A420AD89C7854B9998851B99A72084BB1
:10D224001B685B689847204610BD0224FBE7022474
:10D23400F9E70224F7E700BF885000209403002098
:10D244009050002010B5124B1A68124C2368926952
:10D25400D9785879904723689A7A7AB188B91A7933
:10D264008AB99C788CB90C4B1B68DB689847094BCE
:10D274001B685A79DA72DA781A7300E002242046BD
:10D2840010BD0224FBE70224F9E70224F7E700BFFC
:10D294008C500020885000209050002038B5454B19
:10D2A4001A68137813F07F0303D0022B08D00224EA
:10D2B40004E0537A23F0200353720024204638BD3F
:10D2C4005388002B6CD11479002C6BD1537923F043
:10D2D40080005BB2002B23DB810001F1804101F56A
:10D2E400B841096801F44051334D95F800C08445B4
:10D2F4005AD900295AD0927A002A59D0002B18DB27
:10D30400850005F1804505F5B8452B6803F44053C5
:10D31400B3F5805F20D0294B1B685B699847CDE744
:10D32400810001F1804101F5B841096801F0300143
:10D33400DAE7830003F1804303F5B8431B6803F085
:10D344003003102BE7D1C5B2284600F024FC30216D
:10D35400284600F0B0FBDEE790B9194B93F82C1087
:10D3640000F082FC2B689BB223F4804323F070030B
:10D3740083F4405343F4004343F080032B60CAE733
:10D3840000F0F5FB2B689BB223F4804323F0700379
:10D3940083F4405343F4004343F080032B60BAE723
:10D3A40002248BE7022489E7022487E7022485E725
:10D3B400022483E78850002094030020905000202A
:10D3C4006403002010B52D4B1868427922F08003C5
:10D3D40052B2002A2EDB990001F1804101F5B841D7
:10D3E400096801F44051264C94F800C09C453DD98D
:10D3F4004488002C3CD100293CD0817A00293BD0C0
:10D40400002A20DB9B0003F1804303F5B8431A682C
:10D4140092B222F4804222F0700282F4805242F4EA
:10D42400004242F080021A60164B1B689B699847C1
:10D43400002010BD990001F1804101F5B84109684F
:10D4440001F03001CFE79B0003F1804303F5B843BB
:10D454001A6892B222F4E04222F0400282F01002F2
:10D4640042F4004242F080021A60DDE70220E0E765
:10D474000220DEE70220DCE70220DAE78850002001
:10D48400940300209050002008B5064B1A68537A84
:10D4940043F020035372044B1B68DB699847002058
:10D4A40008BD00BF885000209050002010B5354BB7
:10D4B4001A685478137813F07F032DD1092C11D0F6
:10D4C400052C13D0032C1FD0012C29D1D378012B88
:10D4D40026D1938823BB537A13F0200F20D0FFF773
:10D4E400DDFE01E0FFF78EFE08B319E092F9033088
:10D4F400002B3DDB9378002B3CD19388002B3BD150
:10D50400907AA0B1082220E0D378012B08D1938827
:10D5140033B9FFF7B9FFE7E7012B1AD0022B1DD06F
:10D52400194B1B685B6920469847032826D038BBF3
:10D53400164BD3F8502C92B2154B13445B000022C7
:10D544001A60144B30221A8006220E4B1B681A7282
:10D5540010BD0B2CE4D1FFF775FEC5E7012C04D0F8
:10D56400032CDDD1FFF72EFFBEE7FFF797FEBBE7E5
:10D574000822EAE70822E8E70822E6E70922E4E7C6
:10D584000822E2E7885000208C5000200050004020
:10D594000230002098500020054B1B685A8A10B1B5
:10D5A4000868104470478888801A188200207047E1
:10D5B4008850002008B50C4B93F82C10002000F084
:10D5C40053FB0A4B1B68187A082804D0092814BF97
:10D5D4000020012008BD064B4FF480521A80054BF1
:10D5E40010221A80F2E700BF640300208850002054
:10D5F400965000209850002070B51C4BD3F8502C46
:10D6040092B21B4B13445B001B881A4A1268117AAE
:10D6140009290AD1174B1B6801221A72DB8813BB34
:10D62400FFF744FFFFF7C6FF70BD5B0003F18043C3
:10D6340003F5C0431C4614F8011B11700D4D2A68F4
:10D644005B7853702E68B4F8030000F041FB7080DF
:10D654002E68B4F8070000F03BFBB0802B68B4F8E8
:10D664000B20DA80D6E7FFF775FCDBE700500040BB
:10D67400043000208850002008B5124B1B681B7A28
:10D68400022B15D0042B1AD0032B05D0052B03D065
:10D69400072B07D008220CE0FFF75EFD094B1B683F
:10D6A4001A7A06E0084B1B68DB689847082200E0FA
:10D6B4000822044B1B681A72FFF77CFF08BD08227E
:10D6C400F7E700BF885000208C50002000B5114BB4
:10D6D40093F800E0002114E05FFA81FC4FEA8C0229
:10D6E40002F1804202F5B842136823F0F0031B05EF
:10D6F4001B0D43F4004343F0800343EA0C0313601F
:10D7040001317145E8D340F08000034BC3F84C0C61
:10D714005DF804FB940300200050004008B5154B4D
:10D724001A68137A022B05D0042B03D0062B0CD0D5
:10D73400082204E0FFF7B6FB0E4B1B681A7A0D4B68
:10D744001B681A72FFF736FF08BD5378052B05D006
:10D75400094B1B689B6898470822F0E7137813F07D
:10D764007F0FF5D1D078FFF7B1FF044B1B681B6A1C
:10D774009847EDE7885000208C50002090500020FE
:10D784007047000008B5074B074A136002221A725B
:10D79400064B074A1360074A074911601B689847FC
:10D7A40008BD00BF6850002088500020640300209A
:10D7B4008C50002090500020C003002010B582B08F
:10D7C4000023ADF806309BE01446D2F8003C23F465
:10D7D400E14323F070031B041B0CC2F8003CFFF769
:10D7E4009DFFD4F8003C23F4804323F040031B0442
:10D7F4001B0C8B4A128812F4805F01D083F480538F
:10D80400874A128812F4005F01D083F40053854ADA
:10D81400128812F0100F01D083F01003814A12888D
:10D8240012F0200F01D083F020039BB243F4004395
:10D8340043F080037C4AC2F8003C02B010BD7A4C2D
:10D84400D4F8003C23F070031B051B0DC4F8003C06
:10D85400FFF7D2FED4F8003C23F4804323F04003C6
:10D864001B041B0C6E4A128812F4805F01D083F4EF
:10D8740080536B4A128812F4005F01D083F4005382
:10D88400684A128812F0100F01D083F01003654A21
:10D89400128812F0200F01D083F020039BB243F4CE
:10D8A400004343F08003604AC2F8003CC5E79B0094
:10D8B40003F1804303F5B8431A6892B2ADF8062029
:10D8C400BDF8062012F4004F40F09B80BDF80630EE
:10D8D40013F0800F14D055490B789B0003F180435B
:10D8E40003F5B8431A6822F4E14222F070021204EC
:10D8F400120C1A600B78013B4D4A52F823309847BA
:10D90400494BD3F8443C99B24A4A118013F4004F6E
:10D9140093D0484B1B8803F00F03444A1370002B29
:10D92400C5D1414AD2F8001C89B23D4B19801988EF
:10D9340001F030013B480180198801F440511980FD
:10D94400D2F8003C23F4804323F040031B041B0C57
:10D9540083F4005383F0200343F4004343F0800333
:10D96400C2F8003C334B1B8813F0100F3FF42CAF6C
:10D974002D4BD3F8003C9BB2ADF80630BDF8063011
:10D9840013F4006F7FF45BAFBDF8063013F4004F5F
:10D99400B6D0254CD4F8003C23F070031B051B0DB6
:10D9A400C4F8003CFFF768FED4F8003C23F480433D
:10D9B40023F040031B041B0C194A128812F4805FE5
:10D9C40001D083F48053164A128812F4005F01D008
:10D9D40083F40053134A128812F0100F01D083F01D
:10D9E4001003104A128812F0200F01D083F0200394
:10D9F4009BB243F4004343F080030B4AC2F8003C5B
:10DA04001BE71A6822F070021205120D1A60074B08
:10DA14001B78013B084A52F82330984756E700BF69
:10DA24009650002098500020005000408450002060
:10DA34001C0300201851002038030020013252102A
:10DA440001F1005101F54051490008E0037890F8D4
:10DA540001C043EA0C2321F8043B0230013A002AB6
:10DA6400F4D170470132521001F1005101F54051D7
:10DA7400490004E051F8043B20F8023B013A002A33
:10DA8400F8D1704720F0070080B2024BC3F8500C65
:10DA9400704700BF00500040800000F1804000F556
:10DAA400B84003681BB223F4EC4323F070030B4328
:10DAB4009BB203607047800000F1804000F5B840DD
:10DAC40003689BB223F4E04323F040039BB211F0BC
