:020000040800F2
:1080000000C0002071FB000861A8000863A80008F8
:1080100065A8000867A8000869A80008000000001B
:108020000000000000000000000000006BA8000835
:108030006DA80008000000006FA8000871A80008E3
:10804000B9FB0008B9FB0008B9FB0008B9FB000840
:10805000B9FB0008B9FB0008B9FB0008B9FB000830
:10806000B9FB0008B9FB0008B9FB0008B9FB000820
:10807000B9FB0008B9FB0008B9FB0008B9FB000810
:10808000B9FB0008B9FB0008B9FB0008B9FB000800
:1080900079A80008B9FB0008B9FB0008B9FB000883
:1080A000B9FB0008B9FB0008B9FB0008B9FB0008E0
:1080B000B9FB0008B9FB0008B9FB0008B9FB0008D0
:1080C000B9FB0008B9FB0008B9FB0008B9FB0008C0
:1080D000B9FB0008B9FB0008B9FB0008B9FB0008B0
:1080E000B9FB0008B9FB0008B9FB0008B9FB0008A0
:1080F000B9FB0008B9FB0008B9FB0008B9FB000890
:10810000B9FB0008B9FB0008B9FB0008B9FB00087F
:10811000B9FB0008B9FB0008B9FB0008B9FB00086F
:10812000B9FB0008B9FB0008B9FB0008B9FB00085F
:10813000000000000000000000000000000000003F
:10814000000000000000000000000000000000002F
:10815000000000000000000000000000000000001F
:10816000000000000000000000000000000000000F
:1081700000000000000000000000000000000000FF
:1081800000000000000000000000000000000000EF
:1081900000000000000000000000000000000000DF
:1081A00000000000000000000000000000000000CF
:1081B00000000000000000000000000000000000BF
:1081C00000000000000000000000000000000000AF
:1081D000000000000000000000000000000000009F
:0481E0005FF8E0F173
:1081E80010B5054C237833B9044B13B10448AFF3E9
:1081F80000800123237010BD7C04002000000000D3
:108208002C16010808B5034B1BB103490348AFF30B
:10821800008008BD00000000800400202C16010822
:108228004B1C012B98BF70472DE9F003911C9B084C
:10823800B1F80480B1F802900A8831F802CC804481
:10824800814402448444D9F80070D8F80060156865
:10825800DCF80040C9F80060C8F80070CCF800509D
:108268001460D9F80470D8F804605568DCF8044044
:10827800C9F80460C8F80470CCF804505460083198
:10828800013B7FF4D5AFBDE8F00370474B1C012BD1
:1082980098BF70472DE9F003911C9B08B1F8048042
:1082A800B1F802900A8831F802CC00EB580800EBCC
:1082B800590900EB520200EB5C0CD9F80070D8F8B1
:1082C80000601568DCF80040C9F80060C8F8007064
:1082D800CCF8005014600831013B7FF4DFAFBDE8F3
:1082E800F003704781F0004102E000BF83F00043D3
:1082F80030B54FEA41044FEA430594EA050F08BF39
:1083080090EA020F1FBF54EA000C55EA020C7FEAFC
:10831800645C7FEA655C00F0E2804FEA5454D4EB79
:108328005555B8BF6D420CDD2C4480EA020281EA43
:10833800030382EA000083EA010180EA020281EA7B
:108348000303362D88BF30BD11F0004F4FEA0131CD
:108358004FF4801C4CEA113102D0404261EB4101DC
:1083680013F0004F4FEA03334CEA133302D0524262
:1083780063EB430394EA050F00F0A780A4F101041E
:10838800D5F1200E0DDB02FA0EFC22FA05F2801858
:1083980041F1000103FA0EF2801843FA05F359413E
:1083A8000EE0A5F120050EF1200E012A03FA0EFCBD
:1083B80028BF4CF0020C43FA05F3C01851EBE371E7
:1083C80001F0004507D54FF0000EDCF1000C7EEB04
:1083D80000006EEB0101B1F5801F1BD3B1F5001F42
:1083E8000CD349085FEA30004FEA3C0C04F1010461
:1083F8004FEA445212F5800F80F09A80BCF1004F8A
:1084080008BF5FEA500C50F1000041EB045141EA0B
:10841800050130BD5FEA4C0C404141EB0101013CD4
:1084280028BFB1F5801FE9D291F0000F04BF0146C3
:108438000020B1FA81F308BF2033A3F10B03B3F195
:1084480020020CDA0C3208DD02F1140CC2F10C0225
:1084580001FA0CF021FA02F10CE002F11402D8BF83
:10846800C2F1200C01FA02F120FA0CFCDCBF41EA4F
:108478000C019040E41AA2BF01EB0451294330BD1E
:108488006FEA04041F3C1CDA0C340EDC04F11404FB
:10849800C4F1200220FA04F001FA02F340EA0300D2
:1084A80021FA04F345EA030130BDC4F10C04C4F118
:1084B800200220FA02F001FA04F340EA03002946F8
:1084C80030BD21FA04F0294630BD94F0000F83F442
:1084D800801306BF81F480110134013D4EE77FEA25
:1084E800645C18BF7FEA655C29D094EA050F08BF71
:1084F80090EA020F05D054EA000C04BF1946104652
:1085080030BD91EA030F1EBF0021002030BD5FEA95
:10851800545C05D14000494128BF41F0004130BDBD
:1085280014F580043CBF01F5801130BD01F0004511
:1085380045F0FE4141F470014FF0000030BD7FEA84
:10854800645C1ABF194610467FEA655C1CBF0B467F
:10855800024650EA013406BF52EA033591EA030F96
:1085680041F4002130BD00BF90F0000F04BF00218E
:10857800704730B54FF4806404F132044FF00005C1
:108588004FF0000150E700BF90F0000F04BF00213A
:10859800704730B54FF4806404F1320410F00045A0
:1085A80048BF40424FF000013EE700BF42004FEA9B
:1085B800E2014FEA31014FEA02701FBF12F07F4318
:1085C80093F07F4F81F06051704732F07F4208BFCF
:1085D800704793F07F4F04BF41F40021704730B5D6
:1085E8004FF4607401F0004521F000411CE700BF22
:1085F80050EA010208BF704730B54FF000050AE0A5
:1086080050EA010208BF704730B511F0004502D5A5
:10861800404261EB41014FF4806404F132045FEAA7
:10862800915C3FF4D8AE4FF003025FEADC0C18BF50
:1086380003325FEADC0C18BF033202EBDC02C2F142
:10864800200300FA03FC20FA02F001FA03FE40EAD4
:108658000E0021FA02F11444BDE600BF70B54FF0D8
:10866800FF0C4CF4E06C1CEA11541DBF1CEA1355B6
:1086780094EA0C0F95EA0C0F00F0DEF82C4481EA1E
:10868800030621EA4C5123EA4C5350EA013518BF3E
:1086980052EA033541F4801143F4801338D0A0FB2B
:1086A80002CE4FF00005E1FB02E506F00042E0FBD8
:1086B80003E54FF00006E1FB03569CF0000F18BFDE
:1086C8004EF0010EA4F1FF04B6F5007F64F5407486
:1086D80004D25FEA4E0E6D4146EB060642EAC62119
:1086E80041EA55514FEAC52040EA5E504FEACE2E86
:1086F800B4F1FD0C88BFBCF5E06F1ED8BEF1004F89
:1087080008BF5FEA500E50F1000041EB045170BD04
:1087180006F0004646EA010140EA020081EA030148
:10872800B4EB5C04C2BFD4EB0C0541EA045170BD44
:1087380041F480114FF0000E013C00F3AB8014F1BE
:10874800360FDEBF002001F0004170BDC4F1000407
:10875800203C35DA0C341BDC04F11404C4F1200588
:1087680000FA05F320FA04F001FA05F240EA0200E3
:1087780001F0004221F0004110EBD37021FA04F619
:1087880042EB06015EEA430E08BF20EAD37070BDD3
:10879800C4F10C04C4F1200500FA04F320FA05F032
:1087A80001FA04F240EA020001F0004110EBD37034
:1087B80041F100015EEA430E08BF20EAD37070BDA4
:1087C800C4F1200500FA05F24EEA020E20FA04F37D
:1087D80001FA05F243EA020321FA04F001F000412C
:1087E80021FA04F220EA020000EBD3705EEA430E9D
:1087F80008BF20EAD37070BD94F0000F0FD101F0CC
:108808000046400041EB010111F4801F08BF013C04
:10881800F7D041EA060195F0000F18BF704703F042
:108828000046520043EB030313F4801F08BF013DC9
:10883800F7D043EA0603704794EA0C0F0CEA135585
:1088480018BF95EA0C0F0CD050EA410618BF52EA3F
:108858004306D1D181EA030101F000414FF0000045
:1088680070BD50EA410606BF1046194652EA430653
:1088780019D094EA0C0F02D150EA013613D195EAC7
:108888000C0F05D152EA03361CBF104619460AD10F
:1088980081EA030101F0004141F0FE4141F4700119
:1088A8004FF0000070BD41F0FE4141F4780170BD09
:1088B80070B54FF0FF0C4CF4E06C1CEA11541DBF6E
:1088C8001CEA135594EA0C0F95EA0C0F00F0A7F870
:1088D800A4EB050481EA030E52EA03354FEA01319D
:1088E80000F088804FEA03334FF0805545EA1313B0
:1088F80043EA12634FEA022245EA111545EA106578
:108908004FEA00260EF000419D4208BF964244F10E
:10891800FD0404F5407402D25B084FEA3202B61A2D
:1089280065EB03055B084FEA32024FF480104FF401
:10893800002CB6EB020E75EB030E22BFB61A754675
:1089480040EA0C005B084FEA3202B6EB020E75EB08
:10895800030E22BFB61A754640EA5C005B084FEA70
:108968003202B6EB020E75EB030E22BFB61A75463D
:1089780040EA9C005B084FEA3202B6EB020E75EB48
:10898800030E22BFB61A754640EADC0055EA060E09
:1089980018D04FEA051545EA16754FEA06164FEA4C
:1089A800C30343EA52734FEAC2025FEA1C1CC0D1F8
:1089B80011F4801F0BD141EA00014FF000004FF085
:1089C800004CB6E711F4801F04BF01430020B4F146
:1089D800FD0C88BFBCF5E06F3FF6AFAEB5EB030CFE
:1089E80004BFB6EB020C5FEA500C50F1000041EBFB
:1089F800045170BD0EF0004E4EEA113114EB5C04C8
:108A0800C2BFD4EB0C0541EA045170BD41F480119A
:108A18004FF0000E013C90E645EA060E8DE60CEAA2
:108A2800135594EA0C0F08BF95EA0C0F3FF43BAFBF
:108A380094EA0C0F0AD150EA01347FF434AF95EA76
:108A48000C0F7FF425AF104619462CE795EA0C0F5A
:108A580006D152EA03353FF4FDAE1046194622E727
:108A680050EA410618BF52EA43067FF4C5AE50EA01
:108A780041047FF40DAF52EA43057FF4EBAE12E7F1
:108A88004A0011D212F5001211D20DD56FF4787385
:108A9800B3EB62520ED44FEAC12343F0004343EADA
:108AA800505323FA02F070474FF00000704750EA25
:108AB800013002D14FF0FF3070474FF0000070478F
:108AC8004FEA4102B2F1E04324BFB3F5001CDCF1E8
:108AD800FE5C0DD901F0004C4FEAC0024CEA507020
:108AE800B2F1004F40EB830008BF20F0010070474F
:108AF80011F0804F21D113F13872BCBF01F0004052
:108B0800704741F480114FEA5252C2F11802C2F183
:108B1800200C10FA0CF320FA02F018BF40F0010004
:108B28004FEAC1234FEAD32303FA0CFC40EA0C00B6
:108B380023FA02F34FEA4303CCE77FEA625307D1F3
:108B480050EA01331EBF4FF0FE4040F4400070472A
:108B580001F0004040F0FE4040F40000704700BFC4
:108B680080F0004002E000BF81F0004142001FBFDA
:108B78005FEA410392EA030F7FEA226C7FEA236CE3
:108B88006AD04FEA1262D2EB1363C1BFD2184140D8
:108B980048404140B8BF5B42192B88BF704710F06E
:108BA800004F40F4000020F07F4018BF404211F011
:108BB800004F41F4000121F07F4118BF494292EA79
:108BC800030F3FD0A2F1010241FA03FC10EB0C00A5
:108BD800C3F1200301FA03F100F0004302D5494232
:108BE80060EB4000B0F5000F13D3B0F1807F06D3DF
:108BF80040084FEA310102F10102FE2A51D2B1F1D7
:108C0800004F40EBC25008BF20F0010040EA0300CB
:108C18007047490040EB0000013A28BFB0F5000F4B
:108C2800EDD2B0FA80FCACF1080CB2EB0C0200FA01
:108C38000CF0AABF00EBC25052421843BCBFD04050
:108C48001843704792F0000F81F4000106BF80F4CA
:108C580000000132013BB5E74FEA41037FEA226C8D
:108C680018BF7FEA236C21D092EA030F04D092F058
:108C7800000F08BF0846704790EA010F1CBF00208C
:108C8800704712F07F4F04D1400028BF40F00040E9
:108C9800704712F100723CBF00F50000704700F009
:108CA800004343F0FE4040F4000070477FEA226230
:108CB80016BF08467FEA23630146420206BF5FEA01
:108CC800412390EA010F40F4800070474FF0000301
:108CD80004E000BF10F0004348BF40425FEA000CC8
:108CE80008BF704743F0964301464FF000001CE070
:108CF80050EA010208BF70474FF000030AE000BFC6
:108D080050EA010208BF704711F0004302D5404203
:108D180061EB41015FEA010C02BF84460146002075
:108D280043F0B64308BFA3F18053A3F50003BCFA90
:108D38008CF2083AA3EBC25310DB01FA02FC63443D
:108D480000FA02FCC2F12002BCF1004F20FA02F244
:108D580043EB020008BF20F00100704702F1200237
:108D680001FA02FCC2F1200250EA4C0021FA02F298
:108D780043EB020008BF20EADC7070474FF0FF0C9D
:108D88001CEAD0521EBF1CEAD15392EA0C0F93EA98
:108D98000C0F6FD01A4480EA010C400218BF5FEA3A
:108DA80041211ED04FF0006343EA501043EA5111AD
:108DB800A0FB01310CF00040B1F5000F3EBF4900A7
:108DC80041EAD3715B0040EA010062F17F02FD2AAB
:108DD8001DD8B3F1004F40EBC25008BF20F001008E
:108DE800704790F0000F0CF0004C08BF49024CEAA5
:108DF800502040EA51207F3AC2BFD2F1FF0340EA37
:108E0800C250704740F400004FF00003013A5DDCA7
:108E180012F1190FDCBF00F000407047C2F10002E8
:108E2800410021FA02F1C2F1200200FA02FC5FEAD5
:108E3800310040F1000053EA4C0308BF20EADC701F
:108E4800704792F0000F00F0004C02BF400010F491
:108E5800000F013AF9D040EA0C0093F0000F01F03E
:108E6800004C02BF490011F4000F013BF9D041EA60
:108E78000C018FE70CEAD15392EA0C0F18BF93EA62
:108E88000C0F0AD030F0004C18BF31F0004CD8D18C
:108E980080EA010000F00040704790F0000F17BF13
:108EA80090F0004F084691F0000F91F0004F14D059
:108EB80092EA0C0F01D142020FD193EA0C0F03D1B1
:108EC8004B0218BF084608D180EA010000F00040B4
:108ED80040F0FE4040F40000704740F0FE4040F48F
:108EE800400070474FF0FF0C1CEAD0521EBF1CEA2E
:108EF800D15392EA0C0F93EA0C0F69D0A2EB03024C
:108F080080EA010C49024FEA402037D04FF08053E5
:108F180043EA111143EA10130CF000408B4238BFAA
:108F28005B0042F17D024FF4000C8B4224BF5B1AB8
:108F380040EA0C00B3EB510F24BFA3EB510340EA06
:108F48005C00B3EB910F24BFA3EB910340EA9C00B4
:108F5800B3EBD10F24BFA3EBD10340EADC001B0124
:108F680018BF5FEA1C1CE0D1FD2A3FF650AF8B42C8
:108F780040EBC25008BF20F0010070470CF0004CD5
:108F88004CEA50207F32C2BFD2F1FF0340EAC25000
:108F9800704740F400004FF00003013A37E792F0C1
:108FA800000F00F0004C02BF400010F4000F013A1F
:108FB800F9D040EA0C0093F0000F01F0004C02BF1A
:108FC800490011F4000F013BF9D041EA0C0195E783
:108FD8000CEAD15392EA0C0F08D142027FF47DAF1C
:108FE80093EA0C0F7FF470AF084676E793EA0C0F0C
:108FF80004D14B023FF44CAF08466EE730F0004C0A
:1090080018BF31F0004CCAD130F000427FF45CAF99
:1090180031F000437FF43CAF5FE700BF4FF0FF3C07
:1090280006E000BF4FF0010C02E000BF4FF0010C5A
:109038004DF804CD4FEA40024FEA41037FEA226C23
:1090480018BF7FEA236C11D001B052EA530C18BF45
:1090580090EA010F58BFB2EB030088BFC81738BFAA
:109068006FEAE17018BF40F0010070477FEA226C98
:1090780002D15FEA402C05D17FEA236CE4D15FEA94
:10908800412CE1D05DF8040B704700BF84460846C8
:109098006146FFE70FB5FFF7C9FF002848BF10F189
:1090A800000F0FBD4DF808EDFFF7F4FF0CBF0120CE
:1090B80000205DF808FB00BF4DF808EDFFF7EAFF58
:1090C80034BF012000205DF808FB00BF4DF808ED13
:1090D800FFF7E0FF94BF012000205DF808FB00BF08
:1090E8004DF808EDFFF7D2FF94BF012000205DF88E
:1090F80008FB00BF4DF808EDFFF7C8FF34BF01209B
:1091080000205DF808FB00BF42000ED2B2F1FE4F0E
:109118000BD34FF09E03B3EB126209D44FEA00233E
:1091280043F0004323FA02F070474FF00000704705
:1091380012F1610F01D1420202D14FF0FF307047A6
:109148004FF00000704700BF4FEA40024FEA41036A
:109158007FEA226C02D15FEA402C08D17FEA236CB7
:1091680002D15FEA412C02D14FF0000070474FF066
:10917800010070470A4B4FF480521A604FF40051B7
:1091880059604FF4405199604FF4E041D960012192
:10919800197759775A611A6140F2FF729A617047DC
:1091A8009804002010B582B00446134A1168038859
:1091B80003EB5300014463800020208092699342AE
:1091C80016D2012B16D902220DF1060001F088FBF8
:1091D800638813F0010F06D0BDF806301B09238001
:1091E800002002B010BDBDF80630C3F30B03F6E74C
:1091F8000120F6E70120F4E79804002038B50C4672
:10920800084BDD6859692388023B8AB203FB015188
:1092180001F066FB2046FFF7C5FF00B938BD022004
:10922800FCE700BF9804002030B583B00C460B88DB
:109238004B8000230B80012508E0BDF80420C2F311
:109248000B0218E002B905BB01332380238840F6DE
:10925800FE72934216D80E4A11681944022201EB95
:10926800530101A801F03CFB238813F0010FE4D05F
:10927800BDF804201209002AE4D1002DE2D161884A
:109288008B42DFD0002003B030BDA3800025DBE790
:10929800980400202DE9F0410546B1F802800F88B6
:1092A80008EB5804134B1E6804F470421644C4F3C8
:1092B8000B049A8A314601F013FB18F0010F0FD006
:1092C8002B5D03F00F0303EB07132B5501343F0904
:1092D8002F553146284601F0F7FA0020BDE8F08105
:1092E8002F5501342B5723F00F03C7F303271F43D0
:1092F8002F55EEE79804002038B505460C46114B6B
:10930800DA6859692388023B03FB012101F0DCFA82
:109318002046FFF747FF88B96288238803B138BD24
:10932800228021462846FFF77FFF48B92146284674
:10933800FFF7B0FF0028F2D00120F0E70220EEE7A7
:109348000320ECE7980400202DE9F04105460E467D
:1093580090461F46002313801D4B9B683B6039686D
:109368001B4BDB6899422FD2194B9A8A284601F089
:10937800B7FA4FF0000E7246154B5B699E45EED268
:109388004FF0000CBCF10A0F16D80EEB0C03EC5C86
:10939800E4B116F80C309C420ED1BCF10A0F04D08F
:1093A8000CF1010C1FFA8CFCECE71A32AB5AA8F846
:1093B80000300020BDE8F0813B6820333B600EF1AF
:1093C800200E1FFA8EFED6E70320F3E70420F1E70C
:1093D800980400202DE9F84304460E46174698469F
:1093E800FFF7B2FF0546042802D02846BDE8F883F7
:1093F80039462046FFF718FF054608B10325F4E76C
:10940800D8F80030C3F30B08A3EB08090C4B9A8A71
:109418004946204601F064FA002304E003EB080201
:10942800F15CA15401330A2BF8D908F11A083B88DA
:1094380024F808304946204601F046FAD5E700BF2F
:1094480098040020F8B504460F4611461D4640F61C
:10945800FF731380FFF71EFF2968134EB28A21F4A9
:109468007F6121F00F01204601F03AFA2B68C3F31F
:109478000B030B332022E2542B68C3F30B031C337A
:10948800E750296821F47F6121F00F01204601F09F
:109498001BFAB28A3168204601F022FA7168204628
:1094A80001F012FA0020F8BD980400204FF6FF736F
:1094B800984248D020F01F039BB24FF6E0729342C7
:1094C80043D0C0F30A0240F2FF739A423FD020F41F
:1094D800FC639BB24FF61F0293423AD000F4FC6340
:1094E800B3F5FC6F37D020F4844323F01F039BB2FD
:1094F8004BF6E052934230D040F2F75383432ED0DC
:1095080020F48F4323F068039BB24BF61702934273
:1095180027D000F4BC63B3F5BC6F24D047F6EF3313
:10952800834322D040F21F53834320D000F4784372
:10953800B3F5784F1DD000F01F001F2801D00D2073
:1095480070470C20704700207047012070470320A7
:109558007047052070470720704702207047042095
:1095680070470620704708207047092070470A2076
:1095780070470B207047000030B589B004F0FAFA44
:10958800014605A800F070FE50238DF81C305223C8
:109598008DF81D304D238DF81E3001AB02AA05A9A8
:1095A8006E48FFF7D1FE20B1042830D0092009B059
:1095B80030BDBDF80830ADF8103042238DF81C30AE
:1095C80041238DF81D304B238DF81E3001AB02AAC4
:1095D80005A96248FFF7FEFE002840F0B38004A901
:1095E8005E48FFF70BFE002840F0AE8002A95B48FA
:1095F800FFF782FE002840F0A98001AB02AA4FF4D1
:1096080000715648FFF71EFF002840F0A180502344
:109618008DF81C3052238DF81D304D238DF81E30E7
:1096280001AB02AA05A94D48FFF7D4FE044600285D
:1096380040F09080494D80220021284600F050FDDE
:10964800474B1B881B029BB21033284620F8023B6D
:10965800002110E0434A02EB0112938984462CF85A
:10966800043B92F80EE0D37B43F0080303EB0E2390
:109678004380013160461A29ECD900230CE03A49AD
:1096880031F813C0024622F804CB03F10A0C31F872
:109698001C10418001331046092BF0D900230EE03D
:1096A80032490A6832F813C0024622F804CB03F1A3
:1096B8000A0C096831F81C10418001331046092B47
:1096C800EED92B4A1188034623F8041B528842809E
:1096D80000210BE0274A32F81120120292B22648E4
:1096E80030F81100024423F8022B01310329F1D983
:1096F800002207E0101D214901EB0011898923F898
:10970800021B0132022AF5D9002304E0134AD25C75
:109718002244D4B20133B3F5FF7FF7D90F48624230
:1097280080F8FF2102A9FFF7E7FDA8B901AB02AA5B
:109738004FF400710948FFF785FE00283FF437AF62
:10974800092034E70A2032E7082030E709202EE70D
:1097580009202CE70A202AE7092028E7B804002076
:10976800B0000020B4000020100000206C39002058
:10977800F4020020F8020020000300206402002008
:10978800F8B50746264B9C684FF0FF35244BDB683D
:10979800A3423CD9224B9A8A2146224801F0A0F8DC
:1097A800002122E05A1F022A26D801330A2BF9D9B0
:1097B8004B1D1C4818443EB31A4AD25C303A4378D1
:1097C800303B02EB820202EB820203EB83035B0075
:1097D80003EB82039BB2827813449BB2303B1BB2EB
:1097E800AB4200DD1D46203420310D4B5B698B42B6
:1097F800CCD900230126D9E7CA180A48805CFA5C4C
:109808009042D2D00026D0E74FF0FF33E8E740F28D
:10981800E6339D4201DD4FF0FF35681C80B2F8BD8C
:1098280098040020B804002030B587B004F0A2F9ED
:10983800014603A800F018FD50238DF81430522378
:109848008DF815304D238DF8163000238DF817301C
:109858006B4601AA03A94B48FFF776FD002840F0A4
:10986800868001A94748FFF7C9FC0446002840F054
:109878008280444B1988CBB2102B7ED1002304E0A0
:10988800404AD05C2044C4B20133B3F5007FF7D31B
:10989800002C74D1090A3C4B198000213B4B0DE088
:1098A80018883B4A02EB011290815888000A90738D
:1098B800588840F00800D073013104331A29EFD9D1
:1098C8000022092A0DD8194631F8045B314820F8DE
:1098D80012505D8802F10A0320F8135001320B463A
:1098E800EFE70022092A0FD82B480568194631F8F6
:1098F80004CB25F812C002F10A0500685B8820F83D
:10990800153001320B46EDE71A4632F8040B2349AD
:1099180008805B884B800023032B0CD81188090A28
:109928001F4820F8131032F8021BC9B21D4820F84E
:1099380013100133F0E7002307E01D1D32F8020B76
:10994800194901EB051188810133022BF5D900254E
:10995800032D0DD805EB4500144B03EB8000FFF7F2
:109968000FFF114B03EB051398810135F0E708242D
:10997800204607B030BD0824FAE70524F8E7062496
:10998800F6E700BFB8040020B0000020BA040020A9
:10999800B4000020100000206C390020F4020020E0
:1099A800F8020020000300206402002000170108CC
:1099B8002DE9F04188B0584B03AC93E8070084E8E0
:1099C80007002046FFF7DCFE014606A800F0F0FB82
:1099D8009DF81A308DF811309DF81B308DF8123033
:1099E8009DF81C308DF813306B4601AA21464B4870
:1099F800FFF7F0FC002840F08680484C484D0FCD1A
:109A08000FC40FCD0FC40FCD0FC495E8030044F861
:109A1800040B2180002118E0424B33F811208B0001
:109A280003F13605141204F0F8043C48445503F1D8
:109A38003705D41004F0FC044455D20003F138046F
:109A4800025539330022C25401310F29E4D90026C6
:109A580037467625EF2E46D8002402E0002302344C
:109A68001D46B4F5C87F3CD2A0B2B1B2421C0B4629
:109A780092B204F05BF804F069F8FFF717FD4FEABB
:109A8800001804F063F8FFF711FD40B26B1C9BB29D
:109A980040EA0800214A5055234A12689342DED30F
:109AA80001A91E48FFF728FC78BB0C2E0BD91F4BC9
:109AB800B3F85611B3F8540101F0C2FB1C4A002157
:109AC8000B2001F0C9FB0C2EC8D97D1CADB2C7F321
:109AD800410200214FF4BA7001F04AFC2F460023DE
:109AE800BDE70136B6E725B101A90C48FFF704FC2C
:109AF80078B96B4601AA4FF43C410848FFF7A2FC2D
:109B080020B1092002E00A2000E0092008B0BDE8E1
:109B1800F0810920FAE700BF54160108B8040020B4
:109B2800C8160108A8160108D4140020B4000020A3
:109B38004416010810B588B0014606A800F038FBA5
:109B4800274B0DF10C0C93E807008CE807009DF8F3
:109B58001A308DF811309DF81B308DF812309DF8B1
:109B68001C308DF813306B4601AA61461D48FFF77B
:109B780031FC70BB4FF4806200211A4800F0B0FA43
:109B8800002307E0184A32F8130003F29C521749E1
:109B980088540133032BF5D9124C4FF4B47213498E
:109BA800204600F093FA01A92046FFF7A5FB98B9D3
:109BB8006B4601AA4FF400612046FFF743FC68B9E1
:109BC8000B4A93895289934204D20133084A9381FC
:109BD80000E00A2008B010BD0920FBE70920F9E7DA
:109BE80060160108B8040020000300205C2C002047
:109BF8006402002010B588B0014606A800F0D8FA23
:109C0800164B0DF10C0C93E807008CE807009DF843
:109C18001A308DF811309DF81B308DF812309DF8F0
:109C28001C308DF813306B4601AA61460C48FFF7CB
:109C38008BFB044610B1204608B010BD01A90848A6
:109C4800FFF7DCFA044630B94FF4B472044905480A
:109C580000F03CFAEFE70824EDE700BF60160108C2
:109C6800B8040020F83900202DE9F04188B00146F9
:109C780006A800F09DFA584B03AC93E8070084E867
:109C880007009DF81A308DF811309DF81B308DF8BB
:109C980012309DF81C308DF813306B4601AA21460E
:109CA8004E48FFF797FB002840F08C8000270AE019
:109CB8004721002003F0E0FF07464721012003F079
:109CC800DBFF0743FFB2FF4317F04207F0D1002242
:109CD8004521104603F074FF00224521012003F0BE
:109CE8006FFFB8461DE0002003F0E2FF04460120A4
:109CF80003F0DEFF230A2B70030A6B7004F00104E3
:109D0800AC7000F00100E87001360435B6F5806FDC
:109D1800E9D301A93148FFF7EFFA002854D108F137
:109D28000108B8F1030F02D83E462C4DEEE72B4C44
:109D38004FF480620021204600F0D2F93B462046CD
:109D48000FE0274901EB03118A89044624F8042B04
:109D58008D7BCA7B42F0080202EB05224280204636
:109D680001331A2B16D8012BEBD0032BE9D00A2B81
:109D7800E7D0102BE5D0062BF2D1E2E7194B33F8E8
:109D880017301B029BB2184A32F81720134420F8E8
:109D9800023B0137032FF1D901A91048FFF7ACFAAC
:109DA800A0B96B4601AA4FF484410C48FFF74AFB5F
:109DB80080B90E4A938D528D934208D201330B4AD3
:109DC800938504E00A2002E0092000E0092008B099
:109DD800BDE8F0810920FAE76C160108B8040020F4
:109DE800B4000020F80200200003002064020020D4
:109DF8002DE9F0438BB0014608A800F0D9F9AA4B29
:109E080003AC93E8070084E807009DF822308DF83A
:109E180011309DF823308DF812309DF824308DF8DC
:109E280013306B4601AA2146A048FFF7D3FA002851
:109E380040F02A819D4B9E4A1A609E4A116890897B
:109E480051F8301059601169908B51F830109960B1
:109E5800994903C9D8601974116A908D51F8301066
:109E6800C3F81110116B908F51F83010C3F815100A
:109E780092490868C3F81900097959779049086820
:109E8800C3F81E00097983F822108E4C03CCC3F85E
:109E98002300C3F82710D2F8A010B2F8AC2001EBC9
:109EA800C20051F83220C3F82B20027983F82F2002
:109EB8000D2283F830200A2283F8312000260AE098
:109EC8004721002003F0D8FE06464721012003F071
:109ED800D3FE0643F6B2F64316F04206F0D100224E
:109EE8004521104603F06CFE00224521012003F0B5
:109EF80067FEB146B04632255AE001341D46022CB1
:109F08001ED804F128036B4413F80C2CC2B16B1C47
:109F180066494A55B3F5805FEFD301A96348FFF757
:109F2800EBF9002840F0B28008F10105C8F34102BE
:109F380000214FF4B17001F01BFAA8463346DCE764
:109F48006B1C5A4A2C215155B3F5805F0DD201374D
:109F58001D46032F1CD807F128036B4413F8101C67
:109F680007A800F061F93446C9E701A91046FFF7D0
:109F7800C3F9002840F08E8008F10104C8F34102BB
:109F880000214FF4B17001F0F3F9A0463346DEE743
:109F98006B1C464A0D215155B3F5805F22D25D1CDA
:109FA800424A0A21D154B5F5805F2DD209F1010941
:109FB800B9F5805F3AD2002003F07AFE044601200A
:109FC80003F076FE230A8DF81830030A8DF819304D
:109FD80004F001048DF81A4000F001008DF81B0010
:109FE8003746B6E701A91046FFF786F9002853D18E
:109FF80008F10104C8F3410200214FF4B17001F0E7
:10A00800B7F9A0463346CAE701A91046FFF774F925
:10A01800002843D108F10104C8F3410200214FF49C
:10A02800B17001F0A5F9A0463546BFE7DDB16B1C5C
:10A038001E4C0D226255A81C0A22E254C0F580521B
:10A048000021204407F05CFA01A92046FFF754F9E3
:10A0580030BB08F10104C8F3410200214FF4B1708C
:10A0680001F086F9A0466B4601AA4FEA08310F486D
:10A07800FFF7E8F9B0B9144A938F528F934206D28A
:10A088000133114A938702E00A2000E009200BB04F
:10A09800BDE8F0830920FAE70920F8E70920F6E788
:10A0A8000920F4E70920F2E79C160108B80400200B
:10A0B80043485F41B4000020781601088016010863
:10A0C80088160108901601086402002004E051F87F
:10A0D800042B40F8042B1A46531E002AF7D1704768
:10A0E80002E040F8041B1A46531E002AF9D17047B3
:10A0F80002460B4619B90120704702FB00F0013BEC
:10A1080013F0FF03F9D1704742F20F73994232D826
:10A1180000B5244BA3FB01239B0903F13002027015
:10A128004FF47A7C0CFB131189B21F4BA3FB01C3BC
:10A138005B0903F1300C5FFA8CFC80F801C04FF02A
:10A14800640E0EFB131189B2184BA3FB01E3DB0865
:10A1580003F1300E5FFA8EFE80F802E003EB830312
:10A16800A1EB430189B23031C17000230371302A59
:10A178000CD05DF804FB4F230370762343706523EE
:10A1880083707223C3700023037170472023037008
:10A19800BCF1300FEDD14370BEF1300FE9D18370BF
:10A1A800E7E700BFD34D62101F85EB51CDCCCCCC77
:10A1B800194BA3FB01235B0B03F13002027042F23F
:10A1C800107202FB13139BB2144AA2FB03129209EA
:10A1D80002F1300141704FF47A7101FB12339BB2E6
:10A1E8000F4AA2FB0312520902F130018170642167
:10A1F80001FB12339BB20B4AA2FB0312D20802F1F5
:10A208003001C17002EB8202A3EB42039BB23033F0
:10A2180003710023437170475917B7D1D34D6210AA
:10A228001F85EB51CDCCCCCC0D4BA3FB01235B0997
:10A2380003F130020270642202FB1311C9B2094B08
:10A24800A3FB0123DB0803F13002427003EB830315
:10A25800A1EB4301C9B2303181700023C37070474C
:10A268001F85EB51CDCCCCCC1C2204E0303300F858
:10A27800013B043A52B2002A09DB21FA02F303F047
:10A288000F03092BF2DD373300F8013BF1E7002318
:10A298000370704708B90020704710B5044680085D
:10A2A800FFF7F8FF4000013000FB00F3A34202D99A
:10A2B800013880B210BD80B2FCE70000F0B500F1B3
:10A2C800020EB1F1004F18D039B3002935DDC51C95
:10A2D8002B2383700E460B464FF0050C0022092BEA
:10A2E80030D9A74CA4FB0343DB080132032AF6D973
:10A2F8000CEB8C0C4FEA4C0CF1E7202383702E22D8
:10A30800C27003714371C21D83710023C37104239A
:10A318000370A2EB0E0343702EE12B2383703022CF
:10A32800C2702E2303714271C31D82710022C27153
:10A338000270A3EB0E0343701EE1C51C2D2383702E
:10A348004942C7E7022A01D90CEB06010B46002255
:10A3580004E08B4CA4FB0343DB080132092BF8D83B
:10A36800884BA3FB02435B080370092A00F20581AE
:10A37800DFE812F0F200DA00C000A4008A006F00E3
:10A38800520038001E000A007F4A82FB0132CB17B8
:10A39800C3EB227303F130042A4602F8024B7B4CCC
:10A3A80004FB13112E236B7015460224002200E0D3
:10A3B8000324774B83FB0163CE17C6EB63662B46FA
:10A3C80006F1300503F8015B013C00F0CD80704ECA
:10A3D80086FB0156CD17C5EB66656E4E06FB15115B
:10A3E8001D4600E003246C4B83FB0163CE17C6EBCC
:10A3F800A3562B4606F1300503F8015B013C00F03B
:10A40800B380654E86FB0156CD17C5EBA655634E46
:10A4180006FB15111D4600E00324614B83FB016315
:10A42800CE17C6EBA3462B46303603F8016B013C2A
:10A4380000F09A805A4E86FB016CCE17C6EBAC46EC
:10A44800584F07FB1611EAB12E236B700235002214
:10A4580000E00324544B83FB0163CE17C6EB63363D
:10A468002B4606F1300503F8015B013C7CD04E4ECB
:10A4780086FB0156CD17C5EB66354C4E06FB15110C
:10A488001D4602E01D46E5E70324494B83FB0163B3
:10A49800CE17C6EB23362B4606F1300503F8015BD1
:10A4A800013C61D0424E86FB0156CD17C5EB2635DF
:10A4B80042F2107606FB15111D4600E014463D4B8E
:10A4C80083FB0163CE17C6EBA3162B46303603F881
:10A4D800016B013C48D0374E86FB016CCE17C6EBAA
:10A4E800AC164FF47A7C0CFB1611DAB12E236B7084
:10A4F800023500E00324304B83FB0123CA17C2EB6B
:10A5080063122B46303203F8012B013C2CD02A4D24
:10A5180085FB0125CA17C2EB6512642505FB1211DC
:10A528001D4602E01D46E6E70324244B83FB012376
:10A53800CA17C2EBA3022B46303203F8012B012CB9
:10A5480012D01E4C84FB0124CA17C2EBA40202EBF2
:10A558008202A1EB42011D462B46303103F8011B54
:10A5680002E0202203F8012BC21D9A42F9D80022EA
:10A578001A70A3EB0E034370F0BD2B46F4E700BF3F
:10A58800CDCCCCCCABAAAAAAA12FB84400CA9A3B7E
:10A59800893BE65500E1F5056BCA5F6B809698002C
:10A5A80083DE1B4340420F0089B5F814A0860100E2
:10A5B800AD8BDB68D34D62101F85EB51676666660D
:10A5C800F0B5841CB1F1004F15D0551C11B30B46E2
:10A5D8004FF0050E4FF0000C092B29D98F4EA6FB22
:10A5E8000363DB080CF1010C6245F5D20EEB8E0E0D
:10A5F8004FEA4E0EF0E7202383702E22C2700371BB
:10A608004371C21D83710023C37104230370131B9C
:10A618004370FFE0302383702E22C27003714371B0
:10A62800C21D83710023C3710370131B4370F1E0D3
:10A63800944500D371440B46002604E0774FA7FBEE
:10A648000373DB080136092BF8D8754BA3FB067397
:10A658005B080370092E00F2DE80DFE806F0CFB950
:10A66800A78D796246311D054E0A6E4BA3FB06364F
:10A67800F609C31C30368670013A00F0C4804B0AD4
:10A68800684EA6FB0363DB09674E06FB1311031D27
:10A698002E26C670002600E02346644FA7FB01C79C
:10A6A8007F0E303703F8017B013A00F0AC805F4F32
:10A6B800A7FB01C77F0EDFF878C10CFB171100E07C
:10A6C80023465C4FA7FB01C7BF0D303703F8017B5A
:10A6D800013A00F09880574FA7FB01C7BF0DDFF87C
:10A6E80058C10CFB17119C4600E0A446534FA7FB2A
:10A6F8000137BF0C6346303703F8017B013A00F09D
:10A7080082804E4FA7FB01E7BF0CDFF834E10EFB58
:10A7180017113EB10CF102032E268CF801600026B9
:10A7280000E023464F09DFF81CC1ACFB07C7FF094F
:10A73800303703F8017B013A65D04F09DFF804C1CF
:10A74800ACFB07C7FF09DFF800C10CFB171100E0DD
:10A7580023463E4FA7FB01C77F0B303703F8017B29
:10A76800013A50D0394FA7FB01C77F0B42F2107C4A
:10A778000CFB17119C4600E0A446354FA7FB013798
:10A78800BF096346303703F8017B013A3BD0304FAD
:10A79800A7FB01E7BF094FF47A7E0EFB171136B10C
:10A7A8000CF102032E268CF8016000E02346294EA6
:10A7B800A6FB01767609303603F8016B013A22D000
:10A7C800244EA6FB01767609642707FB161100E0E4
:10A7D8002346124EA6FB0176F608303603F8016BC5
:10A7E800012A10D00D4AA2FB0162D20802EB8202B4
:10A7F800A1EB4201303103F8011B04E02346F9E7DD
:10A80800202203F8012B62199A42F9D800221A7003
:10A818001B1B4370F0BD2346F5E700BFCDCCCCCC65
:10A82800ABAAAAAA834B040000CA9A3B893BE65507
:10A8380000E1F5056BCA5F6B8096980083DE1B43C9
:10A8480040420F00C55A7C0AA08601005917B7D1AB
:10A85800D34D62101F85EB517047FEE7FEE7FEE718
:10A86800FEE770477047704708B502F09FFF08BDC4
:10A8780008B504F0DFFD08BD0C4AD2F844310C4994
:10A888000B60D2F848110B4A11601A1D0A490A4494
:10A898000A48026024330B4409490B60093309490B
:10A8A8000B600023D3619361704700BFA837002075
:10A8B800D4140020D0140020B43F0020D814002065
:10A8C800DC140020BC14002008B5034BD3F8503129
:10A8D800024A1268984708BDA8370020D4140020FF
:10A8E80008B5024BD3F85431984708BDA837002063
:10A8F80038B5334B1B681A785AB9324A126802FBCA
:10A9080000F0314C206002FB01F1304A1160012255
:10A918001A702B4B1B681B78012B11D02B4B1B6813
:10A928006BB92B4B1A68002393612A4A1360264A95
:10A938001360294A03211170214A1268137038BD27
:10A94800234B1B689B694BBB1E4C244D22881E4B16
:10A9580019682846FFF7C4FF40229821284604F0CA
:10A9680011FA1B4B1A682368403B9361194B40222C
:10A978001A604021012004F00BFB3021012004F073
:10A988003EFA114A136840331360104A1368403B7B
:10A998001360134A9368403B9360BFE70D4C2368EC
:10A9A800402298210D48184404F0ECF9084B1A6825
:10A9B8009369403B9361236840332360D9E700BF24
:10A9C800DC140020D4140020CC140020C41400206F
:10A9D800D8140020B81400200E510020B43F0020E5
:10A9E8007051002010B5304B1B68DB6903F1400C37
:10A9F8002E4B1B681A785AB92D4A126802FB00F0D0
:10AA08002C4C206002FB01F12B4A116001221A70C4
:10AA1800264B1B681B78012B3ED0274B1B681BB1AC
:10AA2800264B1B78042B0AD11F4B1B680024DC61C2
:10AA38000121204604F012FB1C4B1B681C7010BD42
:10AA48001F49885C1F495854174B1968CB69013353
:10AA5800CB610132144B1868C3696345F0D31A4BB4
:10AA68001C88144B1A6822441A6013490B681B1B74
:10AA78000B600F490968B3FBF1F401FB14336BB1A8
:10AA8800124A114B198893685B1A93604FF440512E
:10AA9800022004F0D0F9C0E70022DBE7C361511AB5
:10AAA8000848FFF711FFEBE7D8140020DC1400205A
:10AAB800D4140020C8140020C01400200E51002017
:10AAC80010510020B43F0020805100207051002018
:10AAD8002DE9F04F8BB0002403E0E0B202F09EFDB8
:10AAE80001341A2CF9D9A74CD4F8583100251D7017
:10AAF800D4F85C311D700F2003F06CF9A24B93F869
:10AB08007E10082003F04CFA236D0B209847D4F8E8
:10AB1800AC311D80D4F8B43128469847092003F099
:10AB28001DF9092003F038F94FF47A7003F0CAFAD6
:10AB3800092655E04FF4FA7074E0944B33F8162068
:10AB4800144423F8164006F10A0233F81210084498
:10AB580023F81200013D092D2ED9ECB221463846C2
:10AB680003F05AF92146384603F06EF9854BD3F8BD
:10AB780008214FF0010882F80080D3F8083100243A
:10AB88001C70322003F09EFA3221204603F0BAF8F6
:10AB98002C1A3221404603F0B5F8281A84EAE473E7
:10ABA800A3EBE473994680EAE072A2EBE072904668
:10ABB800002BC2D1002AC0D1B9F1020F02D9734BC0
:10ABC80023F816B0B8F1020F04D906F10A036F4A48
:10ABD80022F813A06E4A00210B2000F087FB013EEB
:10ABE800002E23DB1421092003F016F91421092073
:10ABF80003F02AF9F7B2384603F0B0F8384603F004
:10AC0800CBF8624A32F816B00AAB03EB460323F8D6
:10AC180014BC06F10A0132F811A023F828AC042E5E
:10AC280088D0C82003F04EFA142594E7BE210920E5
:10AC380003F0F2F8BE21092003F006F9092003F019
:10AC48008DF8092003F0A8F84FF47A7003F03AFA67
:10AC5800504BB3F800A0ADF814A05F88ADF80070B1
:10AC6800002669E04FF4FA7003F02CFA3221002034
:10AC780003F048F805463221012003F043F8A944BF
:10AC88008044013C052C1BD9E5B2284603F066F840
:10AC9800284603F081F8BE21284603F0BDF8BE21FE
:10ACA800284603F0D1F8374BD3F808210121117059
:10ACB800D3F8083100221A70092CD3D06420D3E7C6
:10ACC80034490A884FF43E7000FB02F292FBF9F90E
:10ACD800A1F800904B8800FB03F393FBF8F8A1F868
:10ACE8000280BE21062003F097F8BE21062003F05B
:10ACF800ABF8244BD3F8082101251570D3F8083197
:10AD080000241C70642003F0DDF93221204602F093
:10AD1800F9FFA0F1BE043221284602F0F3FFA0F1AA
:10AD2800BE02002CB8BF6442A146002AB8BF5242F6
:10AD3800904604B962B10136032E09D8144A00219D
:10AD48000B2000F0D3FA09244FF00008C14699E718
:10AD5800B9F1020F02D90F4BA3F800A0B8F1020F06
:10AD680001D90C4B5F80002207E0074B03EB02136D
:10AD7800D97B41F00801D97301321A2AF5D90BB0F1
:10AD8800BDE8F08FA8370020B40000201000002094
:10AD980054170108F4020020F0B51B4BB3F800C0AB
:10ADA8001A4B1B88ACEB030C1CF10F0322D41B11AC
:10ADB800174AB2F800E003FB0EF39BB2154D2A8840
:10ADC80003EB12139BB202F00F046400032101FA93
:10ADD80004F7114E56F8231021EA070146F823100C
:10ADE800A040014346F82310013292B22A809445CC
:10ADF80002D0F0BD0F33DAE700222A800EF1010EEF
:10AE0800034BA3F800E0F4E7E6140020E414002064
:10AE1800E8140020EA140020EC1400202DE9F8437F
:10AE2800074690460B4621B100F003061BB1BF0848
:10AE380047E08608FAE707F0030742E03046FFF7E5
:10AE4800ABFF01340B2CF9D9234A13880133138043
:10AE5800224A13880C3B13804FF000091DE000259F
:10AE680029E0B9F1040F2AD0002403E0F0B2FFF77B
:10AE780093FF01340B2C06D805FA04F313F4006F82
:10AE8800F4D0F8B2F3E7144A138801331380134A55
:10AE980013880C3B138009F10109B9F1070F0ED88B
:10AEA80098F80030212BDAD9A3F1220209EBC2026B
:10AEB8000B4931F81250212BD3D00024DAE708F1DE
:10AEC800010898F800302BB1034A1388013B13801E
:10AED8000024B7E7BDE8F883E8140020EA1400204E
:10AEE800C41701082DE9F04F83B004463E4BB3F870
:10AEF80000B03E4B1B88ABEB030B1FFA8BFB0BF12F
:10AF0800FF3A1FFA8AFA3A4B1B883A4A12889B1A68
:10AF18009BB201935D1EADB2012706E0A008FFF7C2
:10AF28003BFF0136B542F9D80137BA4505D9324B4E
:10AF38001F800126314B1E80F4E7022612E01FFA1B
:10AF480086F9DFF8B480A8F800902C4F00233B80E6
:10AF58002046FFF721FFA8F800903D802046FFF724
:10AF68001BFF0136B245EAD8234B00221A8002267D
:10AF7800224B1E8003E02046FFF70EFF0136B54244
:10AF8800F9D81D4BA3F800A002261C4B1E8003E035
:10AF98002046FFF701FF0136B542F9D8DFF858809F
:10AFA8000125A8F80050154F3D802046FFF7F4FE14
:10AFB800ABF10206B6B2A8F800603D802046FFF764
:10AFC800EBFEA8F80050019B9D1EADB23D802046C7
:10AFD800FFF7E2FEA8F800603D802046FFF7DCFEA0
:10AFE80003B0BDE8F08F00BFE2140020E014002099
:10AFF800E6140020E4140020E8140020EA140020DD
:10B0080010B50D4C20800D4802800D4A11800D4A64
:10B018001380002304E00C4A002142F82310013376
:10B0280040F2DB529342F6D90320FFF75BFF074B50
:10B0380000221A7010BD00BFE0140020E2140020A6
:10B04800E4140020E6140020EC1400200000002086
:10B0580070B582B0B8234FF490722821C820FFF74A
:10B06800CFFF00241BE06C4D05EB0415A989684649
:10B07800FFF79EF8694B19880DF10202A14214BF2F
:10B0880000210121A87BFFF7C9FE052C00F0848070
:10B09800042C00F08A80062C00F090800134062CE5
:10B0A80000F29C805C4A230102EB0415A8885C49E5
:10B0B8000880E8885B49088058490988D258A14225
:10B0C80014BF00210121A87BFFF7A8FEEB7B13F03A
:10B0D800400FC8D113F0200F2DD113F0010FD4D099
:10B0E8004D4B03EB04139989002940D06846FFF7BC
:10B0F8005FF84A4E3188484D05EB04150DF10302FF
:10B10800A14214BF00210121A87BFFF787FE3188E7
:10B11800454AA14214BF00210121A87BFFF77EFE0A
:10B12800AB89C3EB03139A0092B2404B1A80404B91
:10B1380001221A70A9E7384D05EB0415A98968465C
:10B14800FEF7E2FF354E31880DF10102A14214BF2E
:10B1580000210121A87BFFF761FE3188354AA14211
:10B1680014BF00210121A87BFFF758FE8DE72B4B68
:10B178001988294B03EB04132F4AA14214BF00215D
:10B188000121987BFFF74AFE284B4EF660221A8071
:10B19800274B00221A7078E7284BD3F8B8201E4BAB
:10B1A80003EB04139B89138072E7244BD3F8902098
:10B1B800194B03EB04139B8913806CE7164B03EBC5
:10B1C80004139B8933B1C3EB03139A0092B2174B54
:10B1D8001A8063E7164B00221A705FE70E4CB4F82A
:10B1E80074300F4E3380B4F876300E4D2B80226FBA
:10B1F800002194F87E00FFF711FEB4F88430338004
:10B20800B4F886302B80D4F88020002194F88E0082
:10B21800FFF704FE02B070BD64020020663900200A
:10B22800E8140020EA1400205C17010860030020DD
:10B23800620300205817010860170108A83700208A
:10B2480008B501F10B039BB2024AB2F8CC2002F018
:10B258004FFC08BDA83700202DE9F84391460B465E
:10B2680051B901461F4A32F8118003B908201D4B15
:10B2780033F81060002405E00821F3E7304602F0B7
:10B288005DFC01340B2CF9D924E00025212B02D0D8
:10B298004FF4006408E0042F1AD04FF4006403E070
:10B2A800304602F04BFC64081CB12542F8D04046F9
:10B2B800F7E70137072F0BD899F80030212BE4D98D
:10B2C800A3F1220207EBC202074931F81250DDE769
:10B2D80009F1010999F800300BB10027EAE7BDE848
:10B2E800F88300BF9C1D0108C41701082DE9F84325
:10B2F80091460B4649B901461B4A32F8118003B9F9
:10B308000820194B33F8107026E00821F4E70025CF
:10B31800212B02D04FF4006408E0042E1AD04FF419
:10B32800006403E0384602F009FC64081CB12C42B2
:10B33800F8D04046F7E70136072E0BD899F80030C9
:10B34800212BE4D9A3F1220206EBC202074931F806
:10B358001250DDE709F1010999F800300BB1002618
:10B36800EAE7BDE8F88300BF9C1D0108C41701087F
:10B37800F8B5174601F10A0300F10A029BB292B22E
:10B3880002F0B6FB002610E00A210E4B33F811003C
:10B3980002F0D4FB01340A2C06D845FA04F313F062
:10B3A800010FF1D00821F0E701360A2E09D807EB82
:10B3B800870307EB43033344034A32F8135000244E
:10B3C800E9E7F8BD9C1D01086C170108F0B5ADF25E
:10B3D800044DD7230A220D21002002F089FB002505
:10B3E8005BE080AC60E0002244F823200133652B49
:10B3F800F9D9002227E0314B93F8DE30934236D159
:10B408002F4B1B78F3B132E00133082B1AD84EFAD0
:10B4180003F111F0010FF7D01F1834F8171031435A
:10B4280024F81710F0E7ACF1060307E003EB000E71
:10B4380034F81E10314324F81E100133CCF10F01EB
:10B448009942F3D80132032A1CD81E4B33F8120054
:10B458001D4B33F81260C2EBC2031C4919441C4B44
:10B468009B5C002BEED11B4B1B880D2BC3D00338E4
:10B47800062DD8D811F805E08EF47F4E8EF0FF0E19
:10B488000023C2E7144ED6F8F8309847D6F80031B2
:10B49800CB21204698470135ADB20A2D06D8AC46D7
:10B4A80015F0010F9DD06C460023A0E70A4BD3F896
:10B4B800F83098470DF2044DF0BD00BFB4000020ED
:10B4C800F64F0020000300209C1D0108BC1D010848
:10B4D800A4370020B0000020A837002070B5FFF77F
:10B4E80075FF0D214FF4BA7002F038FB0D2404E00B
:10B4F800002002F023FB0134E4B2D72CF8D90B2446
:10B508000FE00D21204602F029FB002002F016FB77
:10B51800D721204602F022FB002002F00FFB013465
:10B52800A4B2B4F5BA7FECD95B4B93F8EE105B4A42
:10B5380032F8115093F8EC600C36F6B231460A2016
:10B5480002F00CFB002404E0284602F0F7FA01346C
:10B55800E4B2042CF8D931464FF4BA7002F0FEFA7E
:10B56800002404E0284602F0E9FA0134E4B2042C8D
:10B57800F8D9494B93F8FE10484A32F8115093F81D
:10B58800FC600C36F6B231460A2002F0E7FA0024D5
:10B5980004E0284602F0D2FA0134E4B2042CF8D9C7
:10B5A80031464FF4BA7002F0D9FA002404E0284674
:10B5B80002F0C4FA0134E4B2042CF8D9364A92F8FD
:10B5C8007E10364B33F81160B2F80C31B2F86C20AB
:10B5D8009B1AC3EB03135D00ABB22DB25A1E92B295
:10B5E800B2F5B37F16D809339CB20FE00D2120467F
:10B5F80002F0B4FA304602F0A1FAD721204602F050
:10B60800ADFA304602F09AFA0134A4B205F10D03FE
:10B61800A342EBDA204B93F81E11204A32F811505E
:10B62800B3F81C6106F10904A4B20FE00D2120460D
:10B6380002F094FA284602F081FAD721204602F057
:10B648008DFA284602F07AFA0134A4B206F10D0305
:10B65800A342EBDA104B93F82E11104A32F811502E
:10B66800B3F82C6106F10904A4B20FE00D212046BD
:10B6780002F074FA284602F061FAD721204602F057
:10B688006DFA284602F05AFA0134A4B206F10D0305
:10B69800A342EBDA70BD00BFB40000209C1D010876
:10B6A8002DE9F04FADF5637D8E4BB3F80C21B3F85F
:10B6B8006C10521AC2EB02124FEA42091FFA89F9BA
:10B6C800B3F81C71B3F82C210092B3F8ECB0B3F8BE
:10B6D800FC20019293F87E20834931F81280834937
:10B6E80031F8126093F80F2102F00102029293F8E8
:10B6F8001F2102F00102039293F82F2102F00102A8
:10B70800049293F8EF2002F00102059293F8FF20CB
:10B7180002F00102069293F87F3003F001030793C9
:10B72800734A138801331380D62340F273120E2113
:10B738000B2002F0DDF900256AE179AC70E147F6EB
:10B74800EF3275E147F6EF3272E144F82320013316
:10B75800642BFAD947F6EF33A4F890312380654A71
:10B76800A2FB053222F00F03A3EB12135A009542F5
:10B7780019D0614BA3FB05239B0803EB43035A0035
:10B7880095421AD0002D00F0BD80B5F5B47F00F0C9
:10B79800B980002333E047F6EF3224F8132005334D
:10B7A800C72BF8D9E5E70523FAE747F6EF3224F87F
:10B7B80013201933C72BF8D9E4E71923FAE701F165
:10B7C8003800C0B2362836D8C72208A941F8232045
:10B7D800464A32F813C008AA52F823100CAA52F8A5
:10B7E80023000A1A052A05D92CF4844C2CF0080CDD
:10B7F8001FFA8CFC414AD25C002A51D00133032B3A
:10B8080050D803EB8502101F3D498A5CFF2AF5D00A
:10B8180008A941F823200CA941F82320511EC9B2D8
:10B82800C62916D83649095C0029C8D10CAA0121B5
:10B8380042F82310CCE78A4203D90CAA42F8231015
:10B84800C6E78A42C4D2FF29C2D008AA42F8231008
:10B85800BEE752B92A49095C39B10DF1300C4CF8F0
:10B8680023100DF1200C4CF82310C72AB0D9244A14
:10B87800125CC72AACD80CA941F8232008A941F8C2
:10B888002320A5E701329142B8D30028FAD0C7296E
:10B89800F8D834F812E04CEA0E0E24F812E0F1E77A
:10B8A8000246F0E7144BA3FB052323F0010202EB49
:10B8B80053039D424FD1059B1BB14FF6FF7324F8EC
:10B8C8001B30069B23B14FF6FF73019A24F8123000
:10B8D800079B002B3FD034F81830334324F8183036
:10B8E80039E000BFB4000020F80200209C1D0108C8
:10B8F800FA4F002089888888ABAAAAAAA437002012
:10B908005C2C00204FF6FF7224F81B206FF00043D8
:10B918000BEB030124F811200BF1010124F811208D
:10B92800019824F81020C11824F81120411C24F88B
:10B93800112034F81820324324F81820434434F8EE
:10B948001320324324F8132008F1010234F812308E
:10B95800334324F81230012D6CD040F267139D4216
:10B9680068D0AF4273D0009BAB427DD0AF4202D0CB
:10B97800009BAB4207D14FF6FF73A4F89031A4F8AF
:10B988008E31238063807B1E2946AB420AD07B1C04
:10B998009D4207D0009A531E9D4203D0134601339F
:10B9A8009D4204D14FF6FF73A4F890312380A94536
:10B9B80068D009F1FF33994203D009F10103994294
:10B9C80002D1A4F8906126804F4B1A88A5EB020C8F
:10B9D8004E4B18884E4B1B881B1A67D41B1103FB50
:10B9E8000CF34C4901EB830C4B4B1B782BB9AA4247
:10B9F80003D84A4B1B88AB425AD8DFF824A1DAF89F
:10BA0800F8309847DAF80031C921204698470135BF
:10BA1800B5F5B47F70D815F0010F3FF48EAE10ACB9
:10BA2800002D3FF48FAEB5F5B47F3FF488AE002209
:10BA380000238DE64FF6FF7324F81B30019A24F893
:10BA4800123034F81830334324F8183089E7039B50
:10BA5800002B88D0012304E04FF6FF7224F813204E
:10BA68000333C82BF8D97EE7049B002B3FF47EAF45
:10BA7800012304E04FF6FF7224F813200333C82B88
:10BA8800F8D973E7029B7BB9A4F89061A4F88E619A
:10BA9800268066808DE734F81320324324F813207B
:10BAA8000333C82BF7D9EFE70123FAE70F3395E7FC
:10BAB800AE4619E002321F2A13D8C2F34F0381B2EF
:10BAC8000B449BB2591E89B2C629F3D8DCF8001082
:10BAD800D14001F00301134D35F8111024F813106B
:10BAE800E8E70CF1040C1030094B1B88834201D99C
:10BAF8000022E0E7754680E7094BD3F8F83098470D
:10BB08000DF5637DBDE8F08FE0140020E4140020FB
:10BB1800E6140020EC14002000000020E2140020AD
:10BB2800A8370020941D010870B5304CB4F8743063
:10BB38002F4E3380B4F876302E4D2B80226F0B3287
:10BB4800002194F87E00FFF769F9B4F88430338057
:10BB5800B4F886302B80284B1B88032B24D8002070
:10BB6800254B1B881BB3244B1B88012B26D0224B4B
:10BB78001B88022B29D0204B1B88032B2CD090BB71
:10BB88000B221A4BD3F880100A44002193F88E0038
:10BB9800FFF744F9FFF784FD4FF47A7002F092FA48
:10BBA800164B01221A7070BDFDF7E6FCD8E70F4A64
:10BBB80002EB0313187BFDF7BDFFD4E70B4A02EB3A
:10BBC8000313187BFEF716F8D1E7084A02EB0313B4
:10BBD800187BFEF749F8CEE7044A02EB0313187BFB
:10BBE800FEF706F9CBE71622CBE700BF6402002078
:10BBF800E8140020EA140020663900206839002083
:10BC0800F8B5D7216D20FFF71BFB002714E00020B3
:10BC180001F094FF01340B2C07D82B78234113F043
:10BC2800010FF4D040F21F50F2E701350136072E1C
:10BC380001D80024EFE70137172F02D80026494D15
:10BC4800F5E7002404E040F21F5001F077FF0134CB
:10BC5800172CF8D9D7216D20FFF7F2FA002404E059
:10BC680040F21F5001F06AFF0134172CF8D93E4BFF
:10BC7800B3F86C404FF4B45303FB04F4C4F30F342B
:10BC880004F16F06B6B2D821304601F067FF0025EF
:10BC980004E04FF6FF7001F051FF0135082DF8D987
:10BCA8007F34A5B2D8232A461946304601F020FF32
:10BCB800002404E04FF6FF7001F040FF0134102C1F
:10BCC800F8D9E1232A461946304601F011FF00242D
:10BCD80004E04FF6FF7001F031FF0134102CF8D961
:10BCE800D821284601F03AFF002404E04FF6FF70FF
:10BCF80001F024FF0134082CF8D91B4BB3F80C6170
:10BD08004FF4B45303FB06F6C6F30F3606F16E077D
:10BD1800BFB206F1710206F16C00E22392B2E12192
:10BD280080B201F0E5FE104B93F87E200F4B33F8FC
:10BD38001250002403E0284601F000FF01340B2CC8
:10BD4800F9D906F16F02E02392B2D721384601F003
:10BD5800CFFE002403E0284601F0F0FE0134132C46
:10BD6800F9D9F8BD64170108B40000209C1D01082A
:10BD78002DE9F04391B04FF00064B34804F2011389
:10BD880098474FF40041204603F06CFEAF4B1B6808
:10BD9800AF4AA2FB03239B09013BB3F1807FF5D295
:10BDA8004FF0E0225361AB4BF02183F823100025BC
:10BDB800956107231361A84B00932B464FF6FF723A
:10BDC8005A21302001F09CFEA44B00932B464FF6DD
:10BDD800FF725A21B82001F093FEA14B00932B4625
:10BDE8004FF6FF725A214FF4847001F089FE9D4B83
:10BDF80000932B464FF6FF724621782001F080FE13
:10BE0800914C236D06209847236D0420984702F033
:10BE18005DFEFEF731FDFDF7ADF9636F01261E707B
:10BE2800236D09209847236D0A209847236D0B201E
:10BE38009847236D0C2098478021284601F01CFF65
:10BE48008021304601F018FF02F0D6F801F098FE84
:10BE5800E46806228449204605F05AFB78B1062298
:10BE68008249204605F054FB002848D00722804923
:10BE7800204605F04DFB002843D17E4A00E07E4A6B
:10BE88007E4B1A6009AC7E4D0FCD0FC495E80700B4
:10BE980003C424F8022B120C227002AC794D0FCD8A
:10BEA8000FC495E8070003C424F8022B120C227073
:10BEB800FDF7BAFC38B309AC009400234FF4FC62D8
:10BEC8001E21602001F01CFE5F4AD2F8B8106E4BAC
:10BED800B3F85C000880D2F89020B3F84C30138097
:10BEE80009AB9C4211D04FF4FA6002F0EBF802F073
:10BEF80083F801F045FE654B00221A8084E2644A0B
:10BF0800BEE75D4ABCE702ACD6E732216020FFF706
:10BF180097F9604A00210B20FFF7E8F9FEF7D8FDF2
:10BF2800E5E7FFF795F85C4B00221A7075E20322EB
:10BF380089E2FDF73DFD8146584BB3F85611B3F839
:10BF48005401FFF77DF9B9F1000F10D1544A0021CF
:10BF58000B20FFF7CBF94FF4FA6002F0B3F84F4A21
:10BF680092F85F3143F0080382F85F318BE24D4A63
:10BF780000210920FFF7BAF9EDE7FDF7FDFA814640
:10BF8800464BB3F85611B3F85401FFF759F9B9F114
:10BF9800000F10D1444A00210B20FFF7A7F94FF4F6
:10BFA800FA6002F08FF83D4A92F85F3143F00803D7
:10BFB80082F85F3179E23D4A00210920FFF796F9BE
:10BFC800EDE7FFF745F870E278216020FFF738F9D0
:10BFD800304A00210B20FFF789F9FEF779FD782117
:10BFE800B820FFF72DF9324A00210B20FFF77EF920
:10BFF8004FF4FA6002F066F869E22E4B1B78002BCA
:10C0080000F0A3802C4B1B88DA1F92B2012A55D965
:10C018000D2B7CD0162B7AD0152B78D0A3F11702D4
:10C0280092B2012A40F28280132B7FD0A3F10E0234
:10C0380092B2042A00F24B82184A02EB0313DA7B0D
:10C0480082F00102DA7342E2A83700207804002067
:10C05800D34D621000ED00E0D81D01080400002057
:10C06800EC1D0108FC1D0108101E0108181E01081E
:10C07800201E010888000020380000206C390020AC
:10C08800841E0108A01E010864020020FC4F002045
:10C0980060000020281E010868390020B400002034
:10C0A800341E0108441E0108541E0108641E0108BC
:10C0B800741E010800000020B0000020AD4A02EB09
:10C0C8000313D97B41F00801D973997B0131C9B2B7
:10C0D800997301F00301997382F87E1092F87F102A
:10C0E80041F0080182F87F10997B82F88E1092F84F
:10C0F8008F1041F0080182F88F109B7B82F80E3177
:10C1080092F80F3143F0080382F80F31DFE1994AC2
:10C1180002EB03139A7B0132D2B29A7302F0030244
:10C128009A73DA7B42F00802DA73D0E1914A02EBA3
:10C138000312937B0133DBB2937303F00103937310
:10C14800D37B43F00803D373C1E1FFF7EDFCBEE1F5
:10C158000121C7E1884B03EB4608A2F117039BB204
:10C16800012B09D9012E19D9072A1ED0002716E05C
:10C17800824B03EB4608F0E7B8F80030032BF1D107
:10C188007C4B93F81F0120F0010083F81F0193F8FE
:10C198002F0120F0010083F82F01E3E70027032A8D
:10C1A80007D90A2A03D0002304E00127F7E701236F
:10C1B80000E001231E466F48B0F89C0110B913B186
:10C1C800012300E000234FB943B915F4005F76D08E
:10C1D800B8F8000000F004FCA8F80000654BB3F8BC
:10C1E8009C30012B72D0634BB3F8BC30022B0ED8B5
:10C1F800604BB3F8CC300A2B09D95E4B0A22A3F85E
:10C20800CC2093F8CF2042F0080283F8CF20594B76
:10C21800B3F89C30032B5ED0012B76D900F0B8F927
:10C2280015F4804F14D0564B1A88524B03EB021367
:10C23800D97B41F00401D973524B1B78002B00F0D5
:10C248008B80172A00F28680013292B24C4B1A80FA
:10C2580014F4004F40F0A880142001F023FF4A4B4B
:10C26800B3F86C302BB1C3EB03139B009BB2474A66
:10C278001380474BDA6F1378DBB2012B00F0B580DF
:10C28800424B1B889BB2002B40F0B980414B1B7876
:10C29800002B00F0B4801378002B40F0B0803C4CA9
:10C2A800D4F88C3001209847D4F8B83000221A808E
:10C2B800D4F8082101231370374A1370A4E0B8F8A2
:10C2C800000000F0A7FBA8F8000087E7002E8AD03E
:10C2D80001F056FC87E7274AB2F8AC20052A03D9B3
:10C2E800244A0521A2F8AC10224A92F8AF1041F076
:10C2F800080182F8AF100021A2F86C1092F86F10B4
:10C3080041F0080182F86F1086E71A4BB3F89C31A8
:10C31800002B83D1214B1B78002B7FF47FAF154B6B
:10C328000022A3F86C2093F86F2042F0080283F8EB
:10C338006F2073E71A4B01221A7015F4005F04D0BE
:10C34800184B188800F010FB6AE7164B188800F0A5
:10C3580029FB65E7002279E7124B1B88062B07D0DB
:10C3680001339BB20F4A13800D4B01221A706FE7FD
:10C378000023F7E7B4000020F802002000030020A3
:10C38800B0000020000000206402002060030020AC
:10C39800A837002062030020643900209A3F00205B
:10C3A80068390020663900206D4B1A886D4B03EB05
:10C3B8000213D97B41F00401D9736B4B1B783BB155
:10C3C80022B1013A92B2664B1A8045E71822FAE781
:10C3D800664B1B883BB1013B9BB2644A1380644B9C
:10C3E80001221A7038E70623F7E7624BB3F86C307E
:10C3F800C3EB03139B009BB25F490B8040E75F4B85
:10C408001B78012B00F08D8000F00CF900F098FEED
:10C41800574B1B78002B7FF484AD594B1D8825F4AE
:10C42800786424F00F04A4B200221A80002C3FF490
:10C4380020AF4B4B1B884B4A02EB0312967B002E16
:10C448007FF475AD0122474901EB021297891B0160
:10C4580008330B4403F1040815F0100F13D0494BAF
:10C468001B8813F0080F3FF464AD3E4AB2F89C31C4
:10C47800B3FA83F35B09A2F89C3192F89F3143F039
:10C48800080382F89F3115F0200F0ED03D4B1B8812
:10C4980013F0080F3FF471AD334A1378B3FA83F3FE
:10C4A8005B091370002B3FF48CAD15F0400F0ED0D4
:10C4B800344B1B8813F0080F7FF49FAD324B5B6A37
:10C4C800002B7FF481AD304B1B6F00221A7015F4DE
:10C4D800405F3FF4A5AE2B4B1B8813F0080F7FF489
:10C4E80037AE0A21204B1B78002B3FF423AF1C4B9F
:10C4F8001A881C4B03EB0213D87B40F00800D87352
:10C50800072A3FF427AE0D2A3FF432AE132A7FF4F0
:10C5180024AE06EB860807EB48071C4B03EB4708DD
:10C528001BE6194CD4F88C3000209847D4F8B82072
:10C53800104BB3F85C101180D4F8081100220A706F
:10C54800A16F4FF47A7008800C490A70B3F86C3008
:10C55800C3EB03139B009BB2074A138054E700BF49
:10C56800B0000020B4000020000000206639002040
:10C57800683900206402002060030020643900202C
:10C58800FC4F0020D0500020A837002010000020C9
:10C59800214B9B89033B9BB2012B20D91E4B1A6967
:10C5A8001E4B9A4206D01C4B1C4A1A61DA7F42F095
:10C5B8000802DA77184B9B8D033B9BB2012B1BD9E2
:10C5C800154B1A6B154B9A4208D0134B134A1A6332
:10C5D80093F83F2042F0080283F83F2070470E4B43
:10C5E8001A690F4B9A42E5D00B4B0D4A1A61DA7F54
:10C5F80042F00802DA77DDE7074B1A6B084B9A42DC
:10C60800ECD0054B064A1A6393F83F2042F0080223
:10C6180083F83F20704700BFB400002010240108B1
:10C62800602401082DE9F04784B0002455E0B64A9B
:10C638001178B64A127891425BD0534043F0040512
:10C64800B34B93F88F1141F0080183F88F1193F8D9
:10C658006F1141F0080183F86F1193F87F1141F0D1
:10C66800080183F87F1193F85F1141F0080183F8FE
:10C678005F11A54B1A703CE0E0B200F0CFFF072C29
:10C6880003D0102C01D0062C39D1FFF7B9FA36E0C7
:10C69800002B50D19E4A02EB041292F80E80002B18
:10C6A8004CD140462A0902F00803220198498A58C9
:10C6B80003FB062205F00105102841D05FFA80F936
:10C6C800EDB229464846FEF7C7FDA4F11703012B32
:10C6D8003BD9012F40F28E8001341A2C00F23E81A2
:10C6E8008B4B03EB0413DB7B1D468A4A1288A2425C
:10C6F8009DD015F00C0FEFD015F0080FBCD1FEF748
:10C70800EDFE834E06EB0416F37B23F00C03F37364
:10C71800F188B088FEF794FDB689A4F11507032FB8
:10C728008CBF00230123052EB2D0072EB0D0062ED1
:10C73800AED00023AEE74FF00008B0E70A20B1E71B
:10C748000EB10320BAE70920B8E708F00103724ADE
:10C75800122101FB0322B2F910203AB9042E05D8A0
:10C768006E4A29464846FEF7C1FDB5E7002B3FD083
:10C778000321674A02EB01129189694A52F8211094
:10C78800072E01D14FF47A7103EBC3023244624899
:10C7980030F9122002FB01F153B9072E08D05C4A88
:10C7A8009289033A92B2012A02D80A2202FB01F1C5
:10C7B80053B1072E08D0564B9B8D033B9BB2012BE0
:10C7C80002D80A2303FB01F101A8FDF777FD0DF15B
:10C7D800060229464846FEF789FD9DF8042002EB2B
:10C7E8008202504B1A4429464846FEF77FFD73E7FC
:10C7F8000121BEE7C8EBC80808EB06034A4A32F82D
:10C80800131029B9454A29464846FEF76FFD63E7E4
:10C818003F4BB3F8AC80454B13F8087001FB07F7A2
:10C82800062E00F29980DFE806F00404043A630457
:10C838008D003F4B13F80860711FC9B20A20FDF73D
:10C8480057FC07FB00F10F311E23B1FBF3F14FF446
:10C858007A7303FB01F1B8F1090F0AD9B11EC9B205
:10C868000A20FDF745FC07FB00F10F311E23B1FB41
:10C87800F3F1032201A8FDF7A3FE9DF8046006EB7F
:10C8880086032C4E1E440DF1060229464846FEF743
:10C898002DFD324629464846FEF728FD1CE7264B63
:10C8A80013F808A00AF10201C9B20A20FDF720FC1A
:10C8B8007E081E2303FB0061B1FBF7F1B8F1090FF5
:10C8C8000BD951460A20FDF713FC1E2101FB00611C
:10C8D800B1FBF7F7642107FB01F1032201A8FDF77B
:10C8E8006FFE9DF8046006EB8603144E1E44CAE7EB
:10C8F800032201A8FDF764FE9DF8046006EB860399
:10C908000F4E1E44BFE700BF65390020F64F0020D8
:10C91800B4000020B0000020AC390020C01E01087F
:10C92800CC240108B024010874390020B42101087E
:10C93800CC21010894230108E4210108F82001080A
:10C948001C20010803224FF47A7303FB01F101A8AC
:10C95800FDF736FE034E96E7002694E704B0BDE8DF
:10C96800F08700BFBC1E01080D4B03EB00139A892A
:10C9780002EB010C5B89634505DB094B03EB0010F7
:10C98800A0F80CC07047064B03EB0013DB7B13F0D9
:10C99800100F04D0024B03EB00100389838170470A
:10C9A800640200200D4B03EB00139A89A2EB010CE3
:10C9B8001B89634505DC094B03EB0010A0F80CC08C
:10C9C8007047064B03EB0013DB7B13F0100F04D00A
:10C9D800024B03EB001043898381704764020020F7
:10C9E80000EB010C0A4B03EB02135B8963450BDA7E
:10C9F800074B03EB0213DB7B13F0100F06D0044B3D
:10CA080003EB021210897047084480B2704700BFD8
:10CA1800B4000020A0EB010C0A4B03EB02131B89A6
:10CA280063450BDD074B03EB0213DB7B13F0100FA1
:10CA380006D0044B03EB021250897047401A80B2AB
:10CA4800704700BFB400002010B5514B002018807B
:10CA5800FF225A8058829A824E4A918801F1140422
:10CA68009C84D984D28802F11401D9861A87024697
:10CA78008446494B03E059788C4404330132B2F5BB
:10CA8800B47F22D24249B1F900E019788E4501DA23
:10CA98003F4C21803E49B1F902E019788E4501DD0D
:10CAA8003B4C6180197808443949B1F912E059784A
:10CAB8008E4501DA364C61823549B1F914E059786E
:10CAC8008E45D8DD324CA182D5E7314AB2F9004013
:10CAD800C72CCCBF002301231382B2F9021000290E
:10CAE800D4BF002303F00103138243B1A3B2294A40
:10CAF80014881B1B264A13808BB21B1B5380244BA4
:10CB08001A885988521A9A80C2082449A1FB02122D
:10CB180020490888C0EB92021A81B3F91240C72C49
:10CB2800CCBF002201225A84B3F914100029D4BFC3
:10CB3800002202F001025A8442B1A3B2154A548875
:10CB48001B1B134A53828BB21B1B9382104A538AB6
:10CB5800918A5B1AD3824FEADC031049A1FB0313C5
:10CB68000C494988C1EB930353830D4C2388181A49
:10CB7800908163885B1AD3830A49B1F8EC30B1F825
:10CB8800FC105B1A5381084B1B88DB08D38110BD4E
:10CB9800AC390020000300205C2C0020176CC11663
:10CBA800F8020020B4000020640300202DE9F041C1
:10CBB8000446224B00EBC00203EB420133F912603A
:10CBC800B1F902301E4406EBD67676101C4B00EB0A
:10CBD800030E00229046104617461546944605E077
:10CBE800B7FBF8F00EF1040E01328C46B2F5B47FB3
:10CBF8001AD29EF80030134931F814105B1A9E427D
:10CC0800ACBF00210121002AECD01DB103FB037742
:10CC180008F101088C45E5D001EB4C0C6545DFD0E7
:10CC2800002DDFD16546DDE7FDF734FB04EBC404D6
:10CC3800024B03EB4404E080BDE8F081AC390020EE
:10CC48005C2C0020000300202DE9F04F83B08246C1
:10CC5800424B00EBC00203EB420133F91200B1F979
:10CC68000230184400EBD0703D4B33F81A3003EB18
:10CC780060003C4B0AEB030C0023994601939B464A
:10CC880098461F461D461E46194610E0012217E029
:10CC9800A84426E009F10109CDF80480BB46002527
:10CCA80001E035460E460CF1040C01331146B3F58C
:10CCB800B47F1AD29CF80040421D9442E6D80A4636
:10CCC800A0F1050E744500D20022002BEBD00135EF
:10CCD8008A42E8D002EB4101002EE2D0002AD7D1E7
:10CCE8002F448E42D6D00025DDE709F1FF331C2BF7
:10CCF80032D8642303FB0BF1B1FBF9F51A4ACAEBEE
:10CD0800CA0402EB440022F81450019D03FB05F409
:10CD1800B4FBF9F44480AB4403FB0BF3B3FBF9F326
:10CD28009BB28380C380B1FBFBFBA0F808B00F491E
:10CD3800B1F82C31B1F81C115B1A002BB8BF5B425B
:10CD480003EB830303EB83039B005381084B1B888E
:10CD5800938103B0BDE8F08F0023CBE7AC39002006
:10CD6800000300205C2C002074390020B40000204F
:10CD7800F84F002008B5FFF767FE164BB3F88C3163
:10CD8800032B0FD0134BB3F87C31032B10D0114B6E
:10CD9800B3F86C31052B11D10E4BB3F85C31052B70
:10CDA80012D108BD0B4B93F88E01FFF7FFFEE9E7A0
:10CDB800084B93F87E01FFF7F9FEE8E7054B93F877
:10CDC8006E01FFF741FFE7E7024B93F85E01FFF7BB
:10CDD8003BFFE6E7B400002070B50C4615460B4E45
:10CDE80001463046FDF7E4F9094BB3F85401B3F8AE
:10CDF80056312B44204499B280B2FEF721FA3246CC
:10CE080000210B20FEF772FA70BD00BFA03F002082
:10CE1800B400002038B50446084DB5F85401B5F8FB
:10CE280056311344084499B280B2FEF709FA2246F3
:10CE380000210B20FEF75AFA38BD00BFB4000020CD
:10CE4800134BB3F800C084451BD8A0EB0C0C00238F
:10CE58000AE00F4A12881A44521A0E4951F8221051
:10CE68000D4A42F823100133B3F5B47F09DACCF543
:10CE7800B4719942EDDD03EB0C02074951F8221019
:10CE8800EEE7B0F5B47F00D30020014B188070475F
:10CE9800A83F0020003200205C2C0020C72803DCBB
:10CEA80020EAE07080B27047C8207047094BB3F899
:10CEB8009C30032B07D043B9064BB3F8AC30022B98
:10CEC80005D90020704701207047002070470120D5
:10CED800704700BFB40000202DE9F04F93B004461E
:10CEE80002464521002000F06BFE22464521012024
:10CEF80000F066FE854B1968854B9A8B31F8122035
:10CF080008929A8F0A3231F812200992814A1188C0
:10CF18000A9151880B9191880C91D2880D92B3F89F
:10CF2800AC107D4A32F811200592B3F84C200E92CD
:10CF3800B3F85C90A9F10202784B03EB020B09F2FB
:10CF48009A529B5C1193FFF7B1FF28B9744C0027E4
:10CF58004B46D1469A4625E0724CF8E7B8B2CEE087
:10CF680006F0010606EB8606B60062E00698079B07
:10CF780018440C9B184400B2FFF790FF002F40F0B4
:10CF88008780029B2370039B6370A070049BE370EF
:10CF98000434B8460137049B10930F90DDF80C90C9
:10CFA800029B0193002000F083FE0546012000F05B
:10CFB8007FFE064645EA0003C3F380015A4A117012
:10CFC800C3F38011594A1170C3F3C001584A117054
:10CFD800C3F34001574A1170C3F30013564A137044
:10CFE800002BBBD10A9AC2EB1520089B03FB00F06B
:10CFF80000F50070830A069302EB902000B2FFF759
:10D008004DFF02900B9AC2EB1620099B03FB00F020
:10D0180000F50070830A079302EB902000B2FFF737
:10D028003DFF0390BAF1010F9AD99BF80060119B5C
:10D03800F61A0D9B981900B2FFF730FF049005F01F
:10D04800010505EB8505AD0028460E9B023B052B27
:10D058008FD801A252F823F075CF000879D00008C4
:10D0680081D0000887D000088DD0000893D0000830
:10D07800069B079A981A7CE705EA060079E745EACD
:10D08800060076E7069B584273E7079B584270E70D
:10D09800029B019AA3EB020C039BA3EB09060F9BCF
:10D0A800C51A0499109A891A0690184696461CE0E3
:10D0B80008FB0CF2019B03EB922208FB06F309EB39
:10D0C80093232270637008FB05F200EB922208FBA1
:10D0D80001F30EEB9323A270221DE370059B984485
:10D0E8000137B7F5B47F09D01446B8F5806F09D871
:10D0F800BAF1010FDCD90BF1040BD9E7B8B213B0C0
:10D10800BDE8F08F0698A8F5806844E76C390020E0
:10D11800B400002000030020181F0108F83900207F
:10D128005C2C0020003200209A3F0020993F00200C
:10D1380071390020F4390020703900200000000007
:10D148002DE9F04FADF5C15D83B04721002000F017
:10D1580093FD04464721012000F08EFD44EA0003B8
:10D16800C3F38002A8490A70C3F38014A7490C705E
:10D17800C3F34000A6490870C3F3C000A54908706E
:10D18800C3F30013A4490B70A44BB3F89C50B3F835
:10D19800AC10B3F86C00A24B33F8113000FB03F36A
:10D1A800C3EB0313C3F35520032D00F20282DFE81B
:10D1B80015F00400DA01EB01080202290FD8974B99
:10D1C800B3F89C31012B03D000230093002423E003
:10D1D8000020FFF781FE0090FFF732FEF6E742B924
:10D1E80064B18E4BB3F89C31012B02D0002300931D
:10D1F800ECE780B2FFF770FE0090E7E700230093AA
:10D20800E4E7A3000133874AD05CFBF75FFD0DF626
:10D21800280343F824000134B4F5007FF1DB4FF410
:10D22800007104A802F0C6FC00230DF581520832F3
:10D238000DF6280104A802F041FD00230DF58152E6
:10D24800083213600DF581520C3213604FF480726E
:10D258000AA90DF58150083003F000FC002633E0E0
:10D2680032190AAB53F82210FBF780FC0134032C67
:10D27800F6DD6D49FBF736FE6C49FBF77FFD4FF095
:10D288006C51FBF77BFDFBF791F980468946634BB0
:10D29800B3F84C010A38FBF71DFD6549FBF722FE80
:10D2A800FBF784F956A3D3E90023FBF721F80246DC
:10D2B8000B4640464946FBF7D1F9FBF701FC0DF553
:10D2C800856343F826000136FA2E02DC002400208C
:10D2D800CDE7524CB4F81C010238FBF7FBFC55496A
:10D2E800FBF700FE4FF08741FBF748FDFBF70CFF0B
:10D2F8001FFA80F9B4F82C010238FBF7EBFC4D4912
:10D30800FBF7F0FD4FF08741FBF738FDFBF7FCFE1C
:10D3180083B20193A3EB090ABAF1000FB8BFCAF1AF
:10D32800000A1FFA8AFA0AF1FF30FBF7D3FC4249D8
:10D33800FBF7D8FD834611E0264629E04FF07E51E1
:10D348002046FBF7B9FE002855D1BF000337204619
:10D35800FBF7DAFE334BD8550135ADB2B5F5B47FDE
:10D368006ED22F462846FBF7B5FC5946FBF706FD5B
:10D3780004464846FBF7AEFC01462046FBF7F6FBA1
:10D388008046FBF7C1FE84B2631C5345D4DA9EB2D3
:10D398002046FBF79FFC01464046FBF7E5FB80462D
:10D3A80001464FF07E50FBF7DFFB01460DF5C153F8
:10D3B800083303EB8404A4F5A0542068FBF7DEFCD3
:10D3C80004460DF5C153083303EB8606A6F5A056AF
:10D3D80041463068FBF7D2FC01462046FBF7C6FB06
:10D3E800FBF792FE86B23046FBF770FC0446FF2E30
:10D3F800A4D9124CA2E74FF07E54A6E7AFF3008001
:10D40800CDCCCCCCCCCCF03F9A3F0020993F00202B
:10D41800F43900207139002070390020B400002050
:10D42800181F01085C2C00200000A04000002042CA
:10D43800000020410000B2430080B34300007F4356
:10D448006D4BB3F8AC206D4B53F82200FBF73EFC54
:10D458004FF07C51FBF792FCFBF756FE00FB09F9F5
:10D468004FEA1926019D00FB05F52F0AA7EB1924A1
:10D47800634BA3FB0434E408FEF712F9614B0393F2
:10D48800614B9D424AD23046FBF720FCFBF73CFE3D
:10D4980005463846FBF71AFCFBF736FE06462046DB
:10D4A800FBF714FCFBF730FE04461A224FF6D8713E
:10D4B8005648FFF7AFFC27224FF6D8715448FFF7BC
:10D4C800A9FC34224FF6D8715248FFF7A3FC1A2260
:10D4D8000021B0B2FFF780FC27220021A0B2FFF79D
:10D4E8007BFC34220021A8B2FFF776FC1A222A21FD
:10D4F80003A8FFF78FFC27222A2103A8FFF78AFC3D
:10D5080034222A2103A8FFF785FCFFF733FC009B90
:10D51800B3F5B47F4DD100F06FFD4AE06B238DF871
:10D528000C303046FBF720F831A3D3E90023FBF792
:10D53800BFF9FBF7A5FA05463846FBF715F82CA303
:10D54800D3E90023FBF7B4F9FBF79AFA064620461D
:10D55800FBF70AF826A3D3E90023FBF7A9F9FBF7A1
:10D568008FFA0446A1E752B90024FEF799F8FFF7AD
:10D5780001FCB4F5B47F1CD100F03EFD19E080B287
:10D58800FFF7AAFC0446F0E7C2B180B2FFF7A4FC9B
:10D59800214B1B784BB1184B0022A3F89C2193F820
:10D5A8009F2142F0080283F89F21FEF779F8FFF7E0
:10D5B800E1FB0DF5C15D03B0BDE8F08F00F0E0FAC6
:10D5C800E6E70D4BB3F89C31012B0AD00024FEF797
:10D5D80067F8FFF7CFFBB4F5B47FEAD100F00CFD94
:10D5E800E7E70020FFF778FC0446FFF729FCEEE7A1
:10D5F800000000000088C340B40000200803002099
:10D60800ABAAAAAA20487A000040420FFC240108CD
:10D61800042501080C2501087139002038B55C4B38
:10D6280003EB00139B89192823D8DFE800F0173C87
:10D6380030465056226FA622A291915C2222687B26
:10D648007B5C22222222220D514BB3F89C31012B04
:10D658000FD100F0D1FC00F093FA0AE04D4AD2F85D
:10D66800582103F001011170B3FA83F35B094A4AA8
:10D678001370FFF71BFC002840F08780444B93F899
:10D688008C00434B93F87E1000F08AFC38BD414A69
:10D69800D2F85C2103F001011170B3FA83F35B093E
:10D6A8003D4A5370E5E7DCB2204600F057FB3B4BA0
:10D6B8001978204600F0B0FBDBE7DCB2204600F02A
:10D6C8006BFB364B9978204600F0BEFBD1E7B3FAE6
:10D6D80083F35B09304A9370CBE7B3FA83F35B09B2
:10D6E8002D4AD370C5E72A4C2C4D2978207F00F0AD
:10D6F80093FBA97894F83C0000F0A6FBB9E7C3EBCC
:10D708000310400080B200F0B7FBB2E7244C227847
:10D718002121002000F088FAA2782121012000F0C0
:10D7280083FAA6E71A4AB2F81C31B2F82C41A34290
:10D738000CD91C1BA4B222462221002000F040FA7A
:10D7480022462221012000F03BFA92E7E41AF1E791
:10D758000F4BB3F8BC30032B05D00D4BB3F8CC00FE
:10D7680000F0C8FB85E70A4BB3F8CC0000F0A4FB37
:10D778007FE7D8B200F02EFB7BE7054B93F87E10CD
:10D7880093F88C0000F00CFC73E7082079E700BFE1
:10D79800B4000020A8370020A43700200003002090
:10D7A800F8020020004870479C3F00209F4B1B88D0
:10D7B800A52B40F2FB809D4B00221A809C4A1378CF
:10D7C80083F0010313709B4B1B889BB22BB1994AC2
:10D7D80013889BB2013B9BB21380974B1A88013286
:10D7E80092B21A8012F0010F40F0788130B5934957
:10D7F800D1F8A8301878D1F8AC301B785B0343EA2D
:10D8080000331BB2D1F8B000007843EA80331BB272
:10D81800D1F8B410097843EAC13318B203F470435D
:10D82800874CB4F9001020EA010C1FFA8CFE21EA9B
:10D8380000018DB2238011F4805F07D013F4005FDC
:10D8480000F0B8804FF480547E490C8015F4804F66
:10D8580006D00028C0F2B1804FF480407949088092
:10D868001EF4005F07D013F4805F00F0A9804FF426
:10D87800805074490880BCF1000FC0F2A480724B3C
:10D888001B889BB2012B40F2A9806F490B889BB281
:10D89800023B9BB20B806D4BA3FB02131B0903EBEE
:10D8A80083039900511A89B200297ED1B2F57A7F93
:10D8B80002D9614B00221A80604AD2F898301B784E
:10D8C800D2F89C10097843EA4103D2F8A0100978ED
:10D8D80043EA8103D2F8A420127843EAC2035C4ADF
:10D8E80013805C4C218821EA03055648028842EAE5
:10D8F800051212B2028023EA010142EA01220280E3
:10D908002380554B1B88312B72D80133524A138020
:10D91800524BB3F86C30B3B1514B1B889BB293B9DF
:10D92800504B1B88002B40F0AF804F4B1B8840F2B8
:10D93800E232934276D805334B4A13803F4B9B6FB4
:10D94800494A12881A80494A1388591C11800B2B9E
:10D958002BD9134600221A80454A1378B3FA83F369
:10D968005B091370434B1B88A3EBD3039BB2334A69
:10D97800D2F88420128892B240F2771101FB02F2A9
:10D9880003EB22239BB23B4A138047F2C0629342C7
:10D9980040F28680384B0422A3F8AC21364A92F82C
:10D9A800AF3143F0080382F8AF3130BD01331F4A6D
:10D9B800138008E74FF4005446E74FF400404DE762
:10D9C8004FF4005055E713F4804F04D04FF4004152
:10D9D8001C4B198053E74FF48041F9E7174BD3F8F4
:10D9E80094100B889BB223F001039BB20B8052E783
:10D9F800194B00221A80214A13889BB201339BB22B
:10DA08001380174B1B889BB22BB1154A13889BB206
:10DA1800013B9BB213801A4B19881A4A11800022C5
:10DA28001A8075E70F4B01221A8087E7D250002031
:10DA3800D4500020F44F0020AE3F0020A83700202B
:10DA480002500020FC4F0020AA3F0020CDCCCCCCB7
:10DA5800D050002004500020AC3F00206402002079
:10DA680060030020FE4F002000500020B03F00203F
:10DA7800F64F002064030020B40000200650002068
:10DA8800FA4F0020F84F0020154B1B88052B03D9AF
:10DA9800053B134A138051E7124B00221A804DE7C9
:10DAA800B3F5E14F04D9104B0322A3F8AC2175E775
:10DAB80046F64022934204D90B4B0222A3F8AC212C
:10DAC8006CE7B3F5C84F04D9074B0122A3F8AC2182
